{
  "_format": "hh-sol-artifact-1",
  "contractName": "Ribon",
  "sourceName": "contracts/base/Ribon.sol",
  "abi": [
    {
      "inputs": [
        {
          "internalType": "address",
          "name": "_donationToken",
          "type": "address"
        },
        {
          "internalType": "address",
          "name": "_governanceCouncil",
          "type": "address"
        },
        {
          "internalType": "address",
          "name": "_integrationCouncil",
          "type": "address"
        },
        {
          "internalType": "address",
          "name": "_nonProfitCouncil",
          "type": "address"
        }
      ],
      "stateMutability": "nonpayable",
      "type": "constructor"
    },
    {
      "anonymous": false,
      "inputs": [
        {
          "indexed": false,
          "internalType": "bytes32",
          "name": "user",
          "type": "bytes32"
        },
        {
          "indexed": false,
          "internalType": "address",
          "name": "integration",
          "type": "address"
        },
        {
          "indexed": false,
          "internalType": "address",
          "name": "nonProfit",
          "type": "address"
        },
        {
          "indexed": false,
          "internalType": "uint256",
          "name": "amount",
          "type": "uint256"
        }
      ],
      "name": "DonationAdded",
      "type": "event"
    },
    {
      "anonymous": false,
      "inputs": [
        {
          "indexed": false,
          "internalType": "address",
          "name": "integration",
          "type": "address"
        },
        {
          "indexed": false,
          "internalType": "uint256",
          "name": "amount",
          "type": "uint256"
        }
      ],
      "name": "IntegrationBalanceAdded",
      "type": "event"
    },
    {
      "anonymous": false,
      "inputs": [
        {
          "indexed": false,
          "internalType": "address",
          "name": "integration",
          "type": "address"
        },
        {
          "indexed": false,
          "internalType": "uint256",
          "name": "amount",
          "type": "uint256"
        }
      ],
      "name": "IntegrationBalanceRemoved",
      "type": "event"
    },
    {
      "anonymous": false,
      "inputs": [
        {
          "indexed": false,
          "internalType": "address",
          "name": "nonProfit",
          "type": "address"
        }
      ],
      "name": "NonProfitAdded",
      "type": "event"
    },
    {
      "anonymous": false,
      "inputs": [
        {
          "indexed": false,
          "internalType": "address",
          "name": "nonProfit",
          "type": "address"
        }
      ],
      "name": "NonProfitRemoved",
      "type": "event"
    },
    {
      "anonymous": false,
      "inputs": [
        {
          "indexed": false,
          "internalType": "address",
          "name": "promoter",
          "type": "address"
        },
        {
          "indexed": false,
          "internalType": "bytes32",
          "name": "user",
          "type": "bytes32"
        },
        {
          "indexed": false,
          "internalType": "uint256",
          "name": "amount",
          "type": "uint256"
        }
      ],
      "name": "PoolBalanceIncreased",
      "type": "event"
    },
    {
      "inputs": [
        {
          "internalType": "uint256",
          "name": "_amount",
          "type": "uint256"
        },
        {
          "internalType": "bytes32",
          "name": "_user",
          "type": "bytes32"
        }
      ],
      "name": "addDonationPoolBalance",
      "outputs": [],
      "stateMutability": "nonpayable",
      "type": "function"
    },
    {
      "inputs": [
        {
          "internalType": "address",
          "name": "_integration",
          "type": "address"
        },
        {
          "internalType": "uint256",
          "name": "_amount",
          "type": "uint256"
        }
      ],
      "name": "addIntegrationBalance",
      "outputs": [],
      "stateMutability": "nonpayable",
      "type": "function"
    },
    {
      "inputs": [
        {
          "internalType": "address",
          "name": "_nonProfit",
          "type": "address"
        }
      ],
      "name": "addNonProfitToWhitelist",
      "outputs": [],
      "stateMutability": "nonpayable",
      "type": "function"
    },
    {
      "inputs": [
        {
          "internalType": "address",
          "name": "_nonProfit",
          "type": "address"
        },
        {
          "internalType": "bytes32",
          "name": "_user",
          "type": "bytes32"
        },
        {
          "internalType": "uint256",
          "name": "_amount",
          "type": "uint256"
        }
      ],
      "name": "donateThroughIntegration",
      "outputs": [],
      "stateMutability": "nonpayable",
      "type": "function"
    },
    {
      "inputs": [],
      "name": "donationPoolBalance",
      "outputs": [
        {
          "internalType": "uint256",
          "name": "",
          "type": "uint256"
        }
      ],
      "stateMutability": "view",
      "type": "function"
    },
    {
      "inputs": [],
      "name": "donationToken",
      "outputs": [
        {
          "internalType": "contract IERC20",
          "name": "",
          "type": "address"
        }
      ],
      "stateMutability": "view",
      "type": "function"
    },
    {
      "inputs": [],
      "name": "governanceCouncil",
      "outputs": [
        {
          "internalType": "address",
          "name": "",
          "type": "address"
        }
      ],
      "stateMutability": "view",
      "type": "function"
    },
    {
      "inputs": [],
      "name": "getNonProfitCouncil",
      "outputs": [
        {
          "internalType": "address",
          "name": "",
          "type": "address"
        }
      ],
      "stateMutability": "view",
      "type": "function"
    },
    {
      "inputs": [],
      "name": "governanceCouncil",
      "outputs": [
        {
          "internalType": "address",
          "name": "",
          "type": "address"
        }
      ],
      "stateMutability": "view",
      "type": "function"
    },
    {
      "inputs": [],
      "name": "integrationCouncil",
      "outputs": [
        {
          "internalType": "address",
          "name": "",
          "type": "address"
        }
      ],
      "stateMutability": "view",
      "type": "function"
    },
    {
      "inputs": [
        {
          "internalType": "address",
          "name": "",
          "type": "address"
        }
      ],
      "name": "integrations",
      "outputs": [
        {
          "internalType": "uint256",
          "name": "",
          "type": "uint256"
        }
      ],
      "stateMutability": "view",
      "type": "function"
    },
    {
      "inputs": [
        {
          "internalType": "bytes[]",
          "name": "data",
          "type": "bytes[]"
        }
      ],
      "name": "multicall",
      "outputs": [
        {
          "internalType": "bytes[]",
          "name": "results",
          "type": "bytes[]"
        }
      ],
      "stateMutability": "payable",
      "type": "function"
    },
    {
      "inputs": [],
      "name": "nonProfitCouncil",
      "outputs": [
        {
          "internalType": "address",
          "name": "",
          "type": "address"
        }
      ],
      "stateMutability": "view",
      "type": "function"
    },
    {
      "inputs": [
        {
          "internalType": "address",
          "name": "",
          "type": "address"
        }
      ],
      "name": "nonProfits",
      "outputs": [
        {
          "internalType": "bool",
          "name": "",
          "type": "bool"
        }
      ],
      "stateMutability": "view",
      "type": "function"
    },
    {
      "inputs": [
        {
          "internalType": "address",
          "name": "_integration",
          "type": "address"
        },
        {
          "internalType": "uint256",
          "name": "_amount",
          "type": "uint256"
        }
      ],
      "name": "removeIntegrationBalance",
      "outputs": [],
      "stateMutability": "nonpayable",
      "type": "function"
    },
    {
      "inputs": [
        {
          "internalType": "address",
          "name": "_nonProfit",
          "type": "address"
        }
      ],
      "name": "removeNonProfitFromWhitelist",
      "outputs": [],
      "stateMutability": "nonpayable",
      "type": "function"
    },
    {
      "inputs": [
        {
          "internalType": "address",
          "name": "token",
          "type": "address"
        }
      ],
      "name": "setIntegrationCouncil",
      "outputs": [],
      "stateMutability": "nonpayable",
      "type": "function"
    },
    {
      "inputs": [
        {
          "internalType": "uint256",
          "name": "value",
          "type": "uint256"
        },
        {
          "internalType": "uint256",
          "name": "deadline",
          "type": "uint256"
        },
        {
          "internalType": "uint8",
          "name": "v",
          "type": "uint8"
        },
        {
          "internalType": "bytes32",
          "name": "r",
          "type": "bytes32"
        },
        {
          "internalType": "bytes32",
          "name": "s",
          "type": "bytes32"
        }
      ],
      "name": "selfPermit",
      "outputs": [],
      "stateMutability": "payable",
      "type": "function"
    },
    {
      "inputs": [
        {
          "internalType": "address",
          "name": "token",
          "type": "address"
        },
        {
          "internalType": "uint256",
          "name": "nonce",
          "type": "uint256"
        },
        {
          "internalType": "uint256",
          "name": "expiry",
          "type": "uint256"
        },
        {
          "internalType": "uint8",
          "name": "v",
          "type": "uint8"
        },
        {
          "internalType": "bytes32",
          "name": "r",
          "type": "bytes32"
        },
        {
          "internalType": "bytes32",
          "name": "s",
          "type": "bytes32"
        }
      ],
      "name": "selfPermitAllowed",
      "outputs": [],
      "stateMutability": "payable",
      "type": "function"
    },
    {
      "inputs": [
        {
          "internalType": "address",
          "name": "token",
          "type": "address"
        },
        {
          "internalType": "uint256",
          "name": "nonce",
          "type": "uint256"
        },
        {
          "internalType": "uint256",
          "name": "expiry",
          "type": "uint256"
        },
        {
          "internalType": "uint8",
          "name": "v",
          "type": "uint8"
        },
        {
          "internalType": "bytes32",
          "name": "r",
          "type": "bytes32"
        },
        {
          "internalType": "bytes32",
          "name": "s",
          "type": "bytes32"
        }
      ],
      "name": "selfPermitAllowedIfNecessary",
      "outputs": [],
      "stateMutability": "payable",
      "type": "function"
    },
    {
      "inputs": [
        {
          "internalType": "address",
          "name": "token",
          "type": "address"
        },
        {
          "internalType": "uint256",
          "name": "value",
          "type": "uint256"
        },
        {
          "internalType": "uint256",
          "name": "deadline",
          "type": "uint256"
        },
        {
          "internalType": "uint8",
          "name": "v",
          "type": "uint8"
        },
        {
          "internalType": "bytes32",
          "name": "r",
          "type": "bytes32"
        },
        {
          "internalType": "bytes32",
          "name": "s",
          "type": "bytes32"
        }
      ],
      "name": "selfPermitIfNecessary",
      "outputs": [],
      "stateMutability": "payable",
      "type": "function"
    },
    {
      "inputs": [
        {
          "internalType": "address",
          "name": "_integrationCouncil",
          "type": "address"
        }
      ],
      "name": "setIntegrationCouncil",
      "outputs": [],
      "stateMutability": "nonpayable",
      "type": "function"
    },
    {
      "inputs": [
        {
          "internalType": "address",
          "name": "_nonProfitCouncil",
          "type": "address"
        }
      ],
      "name": "setNonProfitCouncil",
      "outputs": [],
      "stateMutability": "nonpayable",
      "type": "function"
    },
    {
      "inputs": [],
      "name": "transferDonationPoolBalance",
      "outputs": [],
      "stateMutability": "nonpayable",
      "type": "function"
    }
  ],
  "bytecode": "0x60806040523480156200001157600080fd5b5060405162002c7c38038062002c7c8339818101604052810190620000379190620001ae565b836000806101000a81548173ffffffffffffffffffffffffffffffffffffffff021916908373ffffffffffffffffffffffffffffffffffffffff16021790555082600160006101000a81548173ffffffffffffffffffffffffffffffffffffffff021916908373ffffffffffffffffffffffffffffffffffffffff16021790555081600260006101000a81548173ffffffffffffffffffffffffffffffffffffffff021916908373ffffffffffffffffffffffffffffffffffffffff16021790555080600360006101000a81548173ffffffffffffffffffffffffffffffffffffffff021916908373ffffffffffffffffffffffffffffffffffffffff1602179055505050505062000220565b600080fd5b600073ffffffffffffffffffffffffffffffffffffffff82169050919050565b6000620001768262000149565b9050919050565b620001888162000169565b81146200019457600080fd5b50565b600081519050620001a8816200017d565b92915050565b60008060008060808587031215620001cb57620001ca62000144565b5b6000620001db8782880162000197565b9450506020620001ee8782880162000197565b9350506040620002018782880162000197565b9250506060620002148782880162000197565b91505092959194509250565b612a4c80620002306000396000f3fe60806040526004361061012a5760003560e01c80637aea5956116100ab578063b4d4bb0e1161006f578063b4d4bb0e146103b5578063b79981f6146103de578063c281605d146103f5578063c2e3140a1461041e578063deb1631f1461043a578063f3995c67146104635761012a565b80637aea5956146102d857806389d32cd314610315578063a4a78f0c1461033e578063a52c4b5c1461035a578063ac9650d8146103855761012a565b80632e11f00a116100f25780632e11f00a146102165780634659a4941461023f57806350237c891461025b57806356dd3a161461028457806373da40c7146102ad5761012a565b806305e647941461012f5780630df721591461016c578063132fdb0b1461019757806317698eee146101c25780631adef45d146101ed575b600080fd5b34801561013b57600080fd5b50610156600480360381019061015191906118c7565b61047f565b604051610163919061190d565b60405180910390f35b34801561017857600080fd5b50610181610497565b60405161018e9190611987565b60405180910390f35b3480156101a357600080fd5b506101ac6104bb565b6040516101b991906119b1565b60405180910390f35b3480156101ce57600080fd5b506101d76104e1565b6040516101e491906119b1565b60405180910390f35b3480156101f957600080fd5b50610214600480360381019061020f91906118c7565b610507565b005b34801561022257600080fd5b5061023d600480360381019061023891906118c7565b6105db565b005b61025960048036038101906102549190611a67565b6106fd565b005b34801561026757600080fd5b50610282600480360381019061027d91906118c7565b61077f565b005b34801561029057600080fd5b506102ab60048036038101906102a691906118c7565b6108a1565b005b3480156102b957600080fd5b506102c2610975565b6040516102cf91906119b1565b60405180910390f35b3480156102e457600080fd5b506102ff60048036038101906102fa91906118c7565b61099b565b60405161030c9190611b0f565b60405180910390f35b34801561032157600080fd5b5061033c60048036038101906103379190611b2a565b6109bb565b005b61035860048036038101906103539190611a67565b610bf6565b005b34801561036657600080fd5b5061036f610cb0565b60405161037c919061190d565b60405180910390f35b61039f600480360381019061039a9190611be2565b610cb6565b6040516103ac9190611d8a565b60405180910390f35b3480156103c157600080fd5b506103dc60048036038101906103d79190611dac565b610e50565b005b3480156103ea57600080fd5b506103f3610f38565b005b34801561040157600080fd5b5061041c60048036038101906104179190611dec565b61101f565b005b61043860048036038101906104339190611a67565b61120e565b005b34801561044657600080fd5b50610461600480360381019061045c9190611dec565b6112a8565b005b61047d60048036038101906104789190611a67565b61145a565b005b60066020528060005260406000206000915090505481565b60008054906101000a900473ffffffffffffffffffffffffffffffffffffffff1681565b600260009054906101000a900473ffffffffffffffffffffffffffffffffffffffff1681565b600160009054906101000a900473ffffffffffffffffffffffffffffffffffffffff1681565b600160009054906101000a900473ffffffffffffffffffffffffffffffffffffffff1673ffffffffffffffffffffffffffffffffffffffff163373ffffffffffffffffffffffffffffffffffffffff1614610597576040517f08c379a000000000000000000000000000000000000000000000000000000000815260040161058e90611eaf565b60405180910390fd5b80600360006101000a81548173ffffffffffffffffffffffffffffffffffffffff021916908373ffffffffffffffffffffffffffffffffffffffff16021790555050565b600360009054906101000a900473ffffffffffffffffffffffffffffffffffffffff1673ffffffffffffffffffffffffffffffffffffffff163373ffffffffffffffffffffffffffffffffffffffff161461066b576040517f08c379a000000000000000000000000000000000000000000000000000000000815260040161066290611f41565b60405180910390fd5b6001600560008373ffffffffffffffffffffffffffffffffffffffff1673ffffffffffffffffffffffffffffffffffffffff16815260200190815260200160002060006101000a81548160ff0219169083151502179055507f48cd054a0d5f7a715ef556531456f832fa4713887fd9619b1994499164bfdb34816040516106f291906119b1565b60405180910390a150565b8573ffffffffffffffffffffffffffffffffffffffff16638fcbaf0c3330888860018989896040518963ffffffff1660e01b8152600401610745989796959493929190611f7f565b600060405180830381600087803b15801561075f57600080fd5b505af1158015610773573d6000803e3d6000fd5b50505050505050505050565b600360009054906101000a900473ffffffffffffffffffffffffffffffffffffffff1673ffffffffffffffffffffffffffffffffffffffff163373ffffffffffffffffffffffffffffffffffffffff161461080f576040517f08c379a000000000000000000000000000000000000000000000000000000000815260040161080690611f41565b60405180910390fd5b6000600560008373ffffffffffffffffffffffffffffffffffffffff1673ffffffffffffffffffffffffffffffffffffffff16815260200190815260200160002060006101000a81548160ff0219169083151502179055507ff4c0882c02504b57aef9b59434f24674dca5b42da5bc5a3da8782b4ec472f2648160405161089691906119b1565b60405180910390a150565b600160009054906101000a900473ffffffffffffffffffffffffffffffffffffffff1673ffffffffffffffffffffffffffffffffffffffff163373ffffffffffffffffffffffffffffffffffffffff1614610931576040517f08c379a000000000000000000000000000000000000000000000000000000000815260040161092890611eaf565b60405180910390fd5b80600260006101000a81548173ffffffffffffffffffffffffffffffffffffffff021916908373ffffffffffffffffffffffffffffffffffffffff16021790555050565b600360009054906101000a900473ffffffffffffffffffffffffffffffffffffffff1681565b60056020528060005260406000206000915054906101000a900460ff1681565b60011515600560008573ffffffffffffffffffffffffffffffffffffffff1673ffffffffffffffffffffffffffffffffffffffff16815260200190815260200160002060009054906101000a900460ff16151514610a4e576040517f08c379a0000000000000000000000000000000000000000000000000000000008152600401610a4590612049565b60405180910390fd5b80600660003373ffffffffffffffffffffffffffffffffffffffff1673ffffffffffffffffffffffffffffffffffffffff168152602001908152602001600020541015610ad0576040517f08c379a0000000000000000000000000000000000000000000000000000000008152600401610ac7906120b5565b60405180910390fd5b60008111610b13576040517f08c379a0000000000000000000000000000000000000000000000000000000008152600401610b0a90612121565b60405180910390fd5b80600660003373ffffffffffffffffffffffffffffffffffffffff1673ffffffffffffffffffffffffffffffffffffffff1681526020019081526020016000206000828254610b629190612170565b92505081905550610bb4838260008054906101000a900473ffffffffffffffffffffffffffffffffffffffff1673ffffffffffffffffffffffffffffffffffffffff166114d99092919063ffffffff16565b7f03648ca2afaaff870f2349ab3ff3431e0643787a1998d322afd18ed2aa9a863c82338584604051610be994939291906121a4565b60405180910390a1505050565b7fffffffffffffffffffffffffffffffffffffffffffffffffffffffffffffffff8673ffffffffffffffffffffffffffffffffffffffff1663dd62ed3e33306040518363ffffffff1660e01b8152600401610c529291906121e9565b602060405180830381865afa158015610c6f573d6000803e3d6000fd5b505050506040513d601f19601f82011682018060405250810190610c939190612227565b1015610ca857610ca78686868686866106fd565b5b505050505050565b60045481565b60608282905067ffffffffffffffff811115610cd557610cd4612254565b5b604051908082528060200260200182016040528015610d0857816020015b6060815260200190600190039081610cf35790505b50905060005b83839050811015610e49576000803073ffffffffffffffffffffffffffffffffffffffff16868685818110610d4657610d45612283565b5b9050602002810190610d5891906122c1565b604051610d66929190612363565b600060405180830381855af49150503d8060008114610da1576040519150601f19603f3d011682016040523d82523d6000602084013e610da6565b606091505b509150915081610e1557604481511015610dbf57600080fd5b60048101905080806020019051810190610dd9919061246e565b6040517f08c379a0000000000000000000000000000000000000000000000000000000008152600401610e0c91906124fb565b60405180910390fd5b80848481518110610e2957610e28612283565b5b602002602001018190525050508080610e419061251d565b915050610d0e565b5092915050565b60008211610e93576040517f08c379a0000000000000000000000000000000000000000000000000000000008152600401610e8a90612121565b60405180910390fd5b610ee033308460008054906101000a900473ffffffffffffffffffffffffffffffffffffffff1673ffffffffffffffffffffffffffffffffffffffff1661155f909392919063ffffffff16565b8160046000828254610ef29190612565565b925050819055507f5c1f172e91f09b99819f6f5031c8a27f8a625a96dff93ed055a502452d6aa781338284604051610f2c939291906125bb565b60405180910390a15050565b600160009054906101000a900473ffffffffffffffffffffffffffffffffffffffff1673ffffffffffffffffffffffffffffffffffffffff163373ffffffffffffffffffffffffffffffffffffffff1614610fc8576040517f08c379a0000000000000000000000000000000000000000000000000000000008152600401610fbf90611eaf565b60405180910390fd5b6110153360045460008054906101000a900473ffffffffffffffffffffffffffffffffffffffff1673ffffffffffffffffffffffffffffffffffffffff166114d99092919063ffffffff16565b6000600481905550565b600260009054906101000a900473ffffffffffffffffffffffffffffffffffffffff1673ffffffffffffffffffffffffffffffffffffffff163373ffffffffffffffffffffffffffffffffffffffff16146110af576040517f08c379a00000000000000000000000000000000000000000000000000000000081526004016110a690612664565b60405180910390fd5b80600660008473ffffffffffffffffffffffffffffffffffffffff1673ffffffffffffffffffffffffffffffffffffffff168152602001908152602001600020541015611131576040517f08c379a0000000000000000000000000000000000000000000000000000000008152600401611128906126f6565b60405180910390fd5b60008111611174576040517f08c379a000000000000000000000000000000000000000000000000000000000815260040161116b90612121565b60405180910390fd5b8060046000828254019250508190555080600660008473ffffffffffffffffffffffffffffffffffffffff1673ffffffffffffffffffffffffffffffffffffffff168152602001908152602001600020600082825403925050819055507f9bf19fcaed3216b249d549bbd10270c5ccb0e8af4b6b33387f21aa9969e56aac8282604051611202929190612716565b60405180910390a15050565b848673ffffffffffffffffffffffffffffffffffffffff1663dd62ed3e33306040518363ffffffff1660e01b815260040161124a9291906121e9565b602060405180830381865afa158015611267573d6000803e3d6000fd5b505050506040513d601f19601f8201168201806040525081019061128b9190612227565b10156112a05761129f86868686868661145a565b5b505050505050565b600260009054906101000a900473ffffffffffffffffffffffffffffffffffffffff1673ffffffffffffffffffffffffffffffffffffffff163373ffffffffffffffffffffffffffffffffffffffff1614611338576040517f08c379a000000000000000000000000000000000000000000000000000000000815260040161132f90612664565b60405180910390fd5b80600454101561137d576040517f08c379a0000000000000000000000000000000000000000000000000000000008152600401611374906126f6565b60405180910390fd5b600081116113c0576040517f08c379a00000000000000000000000000000000000000000000000000000000081526004016113b790612121565b60405180910390fd5b8060046000828254039250508190555080600660008473ffffffffffffffffffffffffffffffffffffffff1673ffffffffffffffffffffffffffffffffffffffff168152602001908152602001600020600082825401925050819055507f777ef5eaabef3886e23f4fb05ad8db9f4b8d00a08fddf565c4fee2e02fb9fc61828260405161144e929190612716565b60405180910390a15050565b8573ffffffffffffffffffffffffffffffffffffffff1663d505accf333088888888886040518863ffffffff1660e01b815260040161149f979695949392919061273f565b600060405180830381600087803b1580156114b957600080fd5b505af11580156114cd573d6000803e3d6000fd5b50505050505050505050565b61155a8363a9059cbb60e01b84846040516024016114f8929190612716565b604051602081830303815290604052907bffffffffffffffffffffffffffffffffffffffffffffffffffffffff19166020820180517bffffffffffffffffffffffffffffffffffffffffffffffffffffffff83818316178352505050506115e8565b505050565b6115e2846323b872dd60e01b858585604051602401611580939291906127ae565b604051602081830303815290604052907bffffffffffffffffffffffffffffffffffffffffffffffffffffffff19166020820180517bffffffffffffffffffffffffffffffffffffffffffffffffffffffff83818316178352505050506115e8565b50505050565b600061164a826040518060400160405280602081526020017f5361666545524332303a206c6f772d6c6576656c2063616c6c206661696c65648152508573ffffffffffffffffffffffffffffffffffffffff166116af9092919063ffffffff16565b90506000815111156116aa578080602001905181019061166a9190612811565b6116a9576040517f08c379a00000000000000000000000000000000000000000000000000000000081526004016116a0906128b0565b60405180910390fd5b5b505050565b60606116be84846000856116c7565b90509392505050565b60608247101561170c576040517f08c379a000000000000000000000000000000000000000000000000000000000815260040161170390612942565b60405180910390fd5b611715856117db565b611754576040517f08c379a000000000000000000000000000000000000000000000000000000000815260040161174b906129ae565b60405180910390fd5b6000808673ffffffffffffffffffffffffffffffffffffffff16858760405161177d91906129ff565b60006040518083038185875af1925050503d80600081146117ba576040519150601f19603f3d011682016040523d82523d6000602084013e6117bf565b606091505b50915091506117cf8282866117ee565b92505050949350505050565b600080823b905060008111915050919050565b606083156117fe5782905061184e565b6000835111156118115782518084602001fd5b816040517f08c379a000000000000000000000000000000000000000000000000000000000815260040161184591906124fb565b60405180910390fd5b9392505050565b6000604051905090565b600080fd5b600080fd5b600073ffffffffffffffffffffffffffffffffffffffff82169050919050565b600061189482611869565b9050919050565b6118a481611889565b81146118af57600080fd5b50565b6000813590506118c18161189b565b92915050565b6000602082840312156118dd576118dc61185f565b5b60006118eb848285016118b2565b91505092915050565b6000819050919050565b611907816118f4565b82525050565b600060208201905061192260008301846118fe565b92915050565b6000819050919050565b600061194d61194861194384611869565b611928565b611869565b9050919050565b600061195f82611932565b9050919050565b600061197182611954565b9050919050565b61198181611966565b82525050565b600060208201905061199c6000830184611978565b92915050565b6119ab81611889565b82525050565b60006020820190506119c660008301846119a2565b92915050565b6119d5816118f4565b81146119e057600080fd5b50565b6000813590506119f2816119cc565b92915050565b600060ff82169050919050565b611a0e816119f8565b8114611a1957600080fd5b50565b600081359050611a2b81611a05565b92915050565b6000819050919050565b611a4481611a31565b8114611a4f57600080fd5b50565b600081359050611a6181611a3b565b92915050565b60008060008060008060c08789031215611a8457611a8361185f565b5b6000611a9289828a016118b2565b9650506020611aa389828a016119e3565b9550506040611ab489828a016119e3565b9450506060611ac589828a01611a1c565b9350506080611ad689828a01611a52565b92505060a0611ae789828a01611a52565b9150509295509295509295565b60008115159050919050565b611b0981611af4565b82525050565b6000602082019050611b246000830184611b00565b92915050565b600080600060608486031215611b4357611b4261185f565b5b6000611b51868287016118b2565b9350506020611b6286828701611a52565b9250506040611b73868287016119e3565b9150509250925092565b600080fd5b600080fd5b600080fd5b60008083601f840112611ba257611ba1611b7d565b5b8235905067ffffffffffffffff811115611bbf57611bbe611b82565b5b602083019150836020820283011115611bdb57611bda611b87565b5b9250929050565b60008060208385031215611bf957611bf861185f565b5b600083013567ffffffffffffffff811115611c1757611c16611864565b5b611c2385828601611b8c565b92509250509250929050565b600081519050919050565b600082825260208201905092915050565b6000819050602082019050919050565b600081519050919050565b600082825260208201905092915050565b60005b83811015611c95578082015181840152602081019050611c7a565b83811115611ca4576000848401525b50505050565b6000601f19601f8301169050919050565b6000611cc682611c5b565b611cd08185611c66565b9350611ce0818560208601611c77565b611ce981611caa565b840191505092915050565b6000611d008383611cbb565b905092915050565b6000602082019050919050565b6000611d2082611c2f565b611d2a8185611c3a565b935083602082028501611d3c85611c4b565b8060005b85811015611d785784840389528151611d598582611cf4565b9450611d6483611d08565b925060208a01995050600181019050611d40565b50829750879550505050505092915050565b60006020820190508181036000830152611da48184611d15565b905092915050565b60008060408385031215611dc357611dc261185f565b5b6000611dd1858286016119e3565b9250506020611de285828601611a52565b9150509250929050565b60008060408385031215611e0357611e0261185f565b5b6000611e11858286016118b2565b9250506020611e22858286016119e3565b9150509250929050565b600082825260208201905092915050565b7f596f7520617265206e6f742074686520676f7665726e616e636520636f756e6360008201527f696c000000000000000000000000000000000000000000000000000000000000602082015250565b6000611e99602283611e2c565b9150611ea482611e3d565b604082019050919050565b60006020820190508181036000830152611ec881611e8c565b9050919050565b7f596f7520617265206e6f7420746865206e6f6e70726f66697420636f756e636960008201527f6c00000000000000000000000000000000000000000000000000000000000000602082015250565b6000611f2b602183611e2c565b9150611f3682611ecf565b604082019050919050565b60006020820190508181036000830152611f5a81611f1e565b9050919050565b611f6a816119f8565b82525050565b611f7981611a31565b82525050565b600061010082019050611f95600083018b6119a2565b611fa2602083018a6119a2565b611faf60408301896118fe565b611fbc60608301886118fe565b611fc96080830187611b00565b611fd660a0830186611f61565b611fe360c0830185611f70565b611ff060e0830184611f70565b9998505050505050505050565b7f4e6f7420612077686974656c6973746564206e6f6e70726f6669740000000000600082015250565b6000612033601b83611e2c565b915061203e82611ffd565b602082019050919050565b6000602082019050818103600083015261206281612026565b9050919050565b7f42616c616e6365206d7573742067726561746572207468616e20616d6f756e74600082015250565b600061209f602083611e2c565b91506120aa82612069565b602082019050919050565b600060208201905081810360008301526120ce81612092565b9050919050565b7f416d6f756e74206d7573742062652067726561746572207468616e2030000000600082015250565b600061210b601d83611e2c565b9150612116826120d5565b602082019050919050565b6000602082019050818103600083015261213a816120fe565b9050919050565b7f4e487b7100000000000000000000000000000000000000000000000000000000600052601160045260246000fd5b600061217b826118f4565b9150612186836118f4565b92508282101561219957612198612141565b5b828203905092915050565b60006080820190506121b96000830187611f70565b6121c660208301866119a2565b6121d360408301856119a2565b6121e060608301846118fe565b95945050505050565b60006040820190506121fe60008301856119a2565b61220b60208301846119a2565b9392505050565b600081519050612221816119cc565b92915050565b60006020828403121561223d5761223c61185f565b5b600061224b84828501612212565b91505092915050565b7f4e487b7100000000000000000000000000000000000000000000000000000000600052604160045260246000fd5b7f4e487b7100000000000000000000000000000000000000000000000000000000600052603260045260246000fd5b600080fd5b600080fd5b600080fd5b600080833560016020038436030381126122de576122dd6122b2565b5b80840192508235915067ffffffffffffffff821115612300576122ff6122b7565b5b60208301925060018202360383131561231c5761231b6122bc565b5b509250929050565b600081905092915050565b82818337600083830152505050565b600061234a8385612324565b935061235783858461232f565b82840190509392505050565b600061237082848661233e565b91508190509392505050565b600080fd5b61238a82611caa565b810181811067ffffffffffffffff821117156123a9576123a8612254565b5b80604052505050565b60006123bc611855565b90506123c88282612381565b919050565b600067ffffffffffffffff8211156123e8576123e7612254565b5b6123f182611caa565b9050602081019050919050565b600061241161240c846123cd565b6123b2565b90508281526020810184848401111561242d5761242c61237c565b5b612438848285611c77565b509392505050565b600082601f83011261245557612454611b7d565b5b81516124658482602086016123fe565b91505092915050565b6000602082840312156124845761248361185f565b5b600082015167ffffffffffffffff8111156124a2576124a1611864565b5b6124ae84828501612440565b91505092915050565b600081519050919050565b60006124cd826124b7565b6124d78185611e2c565b93506124e7818560208601611c77565b6124f081611caa565b840191505092915050565b6000602082019050818103600083015261251581846124c2565b905092915050565b6000612528826118f4565b91507fffffffffffffffffffffffffffffffffffffffffffffffffffffffffffffffff820361255a57612559612141565b5b600182019050919050565b6000612570826118f4565b915061257b836118f4565b9250827fffffffffffffffffffffffffffffffffffffffffffffffffffffffffffffffff038211156125b0576125af612141565b5b828201905092915050565b60006060820190506125d060008301866119a2565b6125dd6020830185611f70565b6125ea60408301846118fe565b949350505050565b7f596f7520617265206e6f742074686520696e746567726174696f6e20636f756e60008201527f63696c0000000000000000000000000000000000000000000000000000000000602082015250565b600061264e602383611e2c565b9150612659826125f2565b604082019050919050565b6000602082019050818103600083015261267d81612641565b9050919050565b7f42616c616e6365206d7573742062652067726561746572207468616e20616d6f60008201527f756e740000000000000000000000000000000000000000000000000000000000602082015250565b60006126e0602383611e2c565b91506126eb82612684565b604082019050919050565b6000602082019050818103600083015261270f816126d3565b9050919050565b600060408201905061272b60008301856119a2565b61273860208301846118fe565b9392505050565b600060e082019050612754600083018a6119a2565b61276160208301896119a2565b61276e60408301886118fe565b61277b60608301876118fe565b6127886080830186611f61565b61279560a0830185611f70565b6127a260c0830184611f70565b98975050505050505050565b60006060820190506127c360008301866119a2565b6127d060208301856119a2565b6127dd60408301846118fe565b949350505050565b6127ee81611af4565b81146127f957600080fd5b50565b60008151905061280b816127e5565b92915050565b6000602082840312156128275761282661185f565b5b6000612835848285016127fc565b91505092915050565b7f5361666545524332303a204552433230206f7065726174696f6e20646964206e60008201527f6f74207375636365656400000000000000000000000000000000000000000000602082015250565b600061289a602a83611e2c565b91506128a58261283e565b604082019050919050565b600060208201905081810360008301526128c98161288d565b9050919050565b7f416464726573733a20696e73756666696369656e742062616c616e636520666f60008201527f722063616c6c0000000000000000000000000000000000000000000000000000602082015250565b600061292c602683611e2c565b9150612937826128d0565b604082019050919050565b6000602082019050818103600083015261295b8161291f565b9050919050565b7f416464726573733a2063616c6c20746f206e6f6e2d636f6e7472616374000000600082015250565b6000612998601d83611e2c565b91506129a382612962565b602082019050919050565b600060208201905081810360008301526129c78161298b565b9050919050565b60006129d982611c5b565b6129e38185612324565b93506129f3818560208601611c77565b80840191505092915050565b6000612a0b82846129ce565b91508190509291505056fea264697066735822122016ce6f66696b6f39285d7f5d33b002e2fe3931c9128a75dd6b4ff0ec97b4625564736f6c634300080e0033",
  "linkReferences": {},
  "deployedLinkReferences": {}
}