{
  "_format": "hh-sol-artifact-1",
  "contractName": "Ribon",
  "sourceName": "contracts/Ribon.sol",
  "abi": [
    {
      "inputs": [
        {
          "internalType": "address",
          "name": "_donationToken",
          "type": "address"
        },
        {
          "internalType": "address",
          "name": "_integrationCouncil",
          "type": "address"
        },
        {
          "internalType": "address",
          "name": "_nonProfitCouncil",
          "type": "address"
        }
      ],
      "stateMutability": "nonpayable",
      "type": "constructor"
    },
    {
      "anonymous": false,
      "inputs": [
        {
          "indexed": false,
          "internalType": "address",
          "name": "user",
          "type": "address"
        },
        {
          "indexed": false,
          "internalType": "address",
          "name": "integration",
          "type": "address"
        },
        {
          "indexed": false,
          "internalType": "address",
          "name": "nonProfit",
          "type": "address"
        },
        {
          "indexed": false,
          "internalType": "uint256",
          "name": "amount",
          "type": "uint256"
        }
      ],
      "name": "DonationAdded",
      "type": "event"
    },
    {
      "anonymous": false,
      "inputs": [
        {
          "indexed": false,
          "internalType": "address",
          "name": "integration",
          "type": "address"
        },
        {
          "indexed": false,
          "internalType": "uint256",
          "name": "amount",
          "type": "uint256"
        }
      ],
      "name": "IntegrationBalanceUpdated",
      "type": "event"
    },
    {
      "anonymous": false,
      "inputs": [
        {
          "indexed": false,
          "internalType": "address",
          "name": "nonProfit",
          "type": "address"
        }
      ],
      "name": "NonProfitAdded",
      "type": "event"
    },
    {
      "anonymous": false,
      "inputs": [
        {
          "indexed": false,
          "internalType": "address",
          "name": "nonProfit",
          "type": "address"
        }
      ],
      "name": "NonProfitRemoved",
      "type": "event"
    },
    {
      "anonymous": false,
      "inputs": [
        {
          "indexed": false,
          "internalType": "address",
          "name": "promoter",
          "type": "address"
        },
        {
          "indexed": false,
          "internalType": "uint256",
          "name": "amount",
          "type": "uint256"
        }
      ],
      "name": "PoolBalanceIncreased",
      "type": "event"
    },
    {
      "inputs": [
        {
          "internalType": "uint256",
          "name": "_amount",
          "type": "uint256"
        }
      ],
      "name": "addDonationPoolBalance",
      "outputs": [],
      "stateMutability": "payable",
      "type": "function"
    },
    {
      "inputs": [
        {
          "internalType": "address",
          "name": "_nonProfit",
          "type": "address"
        }
      ],
      "name": "addNonProfitToWhitelist",
      "outputs": [],
      "stateMutability": "nonpayable",
      "type": "function"
    },
    {
      "inputs": [
        {
          "internalType": "address",
          "name": "_nonProfit",
          "type": "address"
        },
        {
          "internalType": "address",
          "name": "_user",
          "type": "address"
        },
        {
          "internalType": "uint256",
          "name": "_amount",
          "type": "uint256"
        }
      ],
      "name": "donateThroughIntegration",
      "outputs": [],
      "stateMutability": "payable",
      "type": "function"
    },
    {
      "inputs": [],
      "name": "donationPoolBalance",
      "outputs": [
        {
          "internalType": "uint256",
          "name": "",
          "type": "uint256"
        }
      ],
      "stateMutability": "view",
      "type": "function"
    },
    {
      "inputs": [],
      "name": "donationToken",
      "outputs": [
        {
          "internalType": "contract IERC20",
          "name": "",
          "type": "address"
        }
      ],
      "stateMutability": "view",
      "type": "function"
    },
    {
      "inputs": [
        {
          "internalType": "address",
          "name": "_integration",
          "type": "address"
        }
      ],
      "name": "getIntegrationBalance",
      "outputs": [
        {
          "internalType": "uint256",
          "name": "",
          "type": "uint256"
        }
      ],
      "stateMutability": "view",
      "type": "function"
    },
    {
      "inputs": [],
      "name": "getIntegrationCouncil",
      "outputs": [
        {
          "internalType": "address",
          "name": "",
          "type": "address"
        }
      ],
      "stateMutability": "view",
      "type": "function"
    },
    {
      "inputs": [],
      "name": "integrationCouncil",
      "outputs": [
        {
          "internalType": "address",
          "name": "",
          "type": "address"
        }
      ],
      "stateMutability": "view",
      "type": "function"
    },
    {
      "inputs": [
        {
          "internalType": "address",
          "name": "",
          "type": "address"
        }
      ],
      "name": "integrations",
      "outputs": [
        {
          "internalType": "uint256",
          "name": "",
          "type": "uint256"
        }
      ],
      "stateMutability": "view",
      "type": "function"
    },
    {
      "inputs": [
        {
          "internalType": "address",
          "name": "_nonProfit",
          "type": "address"
        }
      ],
      "name": "isNonProfitOnWhitelist",
      "outputs": [
        {
          "internalType": "bool",
          "name": "",
          "type": "bool"
        }
      ],
      "stateMutability": "view",
      "type": "function"
    },
    {
      "inputs": [],
      "name": "nonProfitCouncil",
      "outputs": [
        {
          "internalType": "address",
          "name": "",
          "type": "address"
        }
      ],
      "stateMutability": "view",
      "type": "function"
    },
    {
      "inputs": [
        {
          "internalType": "address",
          "name": "",
          "type": "address"
        }
      ],
      "name": "nonProfits",
      "outputs": [
        {
          "internalType": "bool",
          "name": "",
          "type": "bool"
        }
      ],
      "stateMutability": "view",
      "type": "function"
    },
    {
      "inputs": [
        {
          "internalType": "address",
          "name": "_nonProfit",
          "type": "address"
        }
      ],
      "name": "removeNonProfitFromWhitelist",
      "outputs": [],
      "stateMutability": "nonpayable",
      "type": "function"
    },
    {
      "inputs": [
        {
          "internalType": "address",
          "name": "_integration",
          "type": "address"
        },
        {
          "internalType": "uint256",
          "name": "_amount",
          "type": "uint256"
        }
      ],
      "name": "updateIntegrationBalance",
      "outputs": [],
      "stateMutability": "nonpayable",
      "type": "function"
    }
  ],
  "bytecode": "0x60806040526200004f6040518060400160405280601981526020017f57652068617665206265656e20636f6e737472756374656421000000000000008152506200005560201b62000c4c1760201c565b620001e9565b620000f5816040516024016200006c919062000162565b6040516020818303038152906040527f41304fac000000000000000000000000000000000000000000000000000000007bffffffffffffffffffffffffffffffffffffffffffffffffffffffff19166020820180517bffffffffffffffffffffffffffffffffffffffffffffffffffffffff8381831617835250505050620000f860201b60201c565b50565b60008151905060006a636f6e736f6c652e6c6f679050602083016000808483855afa5050505050565b60006200012e8262000186565b6200013a818562000191565b93506200014c818560208601620001a2565b6200015781620001d8565b840191505092915050565b600060208201905081810360008301526200017e818462000121565b905092915050565b600081519050919050565b600082825260208201905092915050565b60005b83811015620001c2578082015181840152602081019050620001a5565b83811115620001d2576000848401525b50505050565b6000601f19601f8301169050919050565b6119f180620001f96000396000f3fe608060405234801561001057600080fd5b50600436106100e95760003560e01c80636c693d7f1161008c5780639905ffe3116100665780639905ffe314610238578063a52c4b5c14610254578063c4cb9b9414610272578063e12df64b146102a2576100e9565b80636c693d7f146101ce5780637195bb53146101ec5780637c3ce0bf14610208576100e9565b806338a59a07116100c857806338a59a07146101585780635cf81c451461017657806365296d0c1461019257806368f50803146101b0576100e9565b8062b37044146100ee5780632304dec01461010c578063368c751c14610128575b600080fd5b6100f66102be565b60405161010391906115d9565b60405180910390f35b6101266004803603810190610121919061100a565b6102c4565b005b610142600480360381019061013d919061105e565b6103f4565b60405161014f91906115d9565b60405180910390f35b610160610408565b60405161016d91906114e3565b60405180910390f35b610190600480360381019061018b91906110c8565b6104ed565b005b61019a61055a565b6040516101a791906115d9565b60405180910390f35b6101b8610563565b6040516101c59190611527565b60405180910390f35b6101d66106eb565b6040516101e39190611505565b60405180910390f35b6102066004803603810190610201919061100a565b610858565b005b610222600480360381019061021d9190610fe1565b6109b1565b60405161022f91906115d9565b60405180910390f35b610252600480360381019061024d91906110f1565b6109c9565b005b61025c610bcb565b60405161026991906115d9565b60405180910390f35b61028c6004803603810190610287919061109f565b610bd1565b60405161029991906115d9565b60405180910390f35b6102bc60048036038101906102b791906110c8565b610bdf565b005b60015481565b600660405180606001604052808481526020018373ffffffffffffffffffffffffffffffffffffffff168152602001600063ffffffff1681525090806001815401808255809150506001900390600052602060002090600202016000909190919091506000820151816000019080519060200190610343929190610daa565b5060208201518160010160006101000a81548173ffffffffffffffffffffffffffffffffffffffff021916908373ffffffffffffffffffffffffffffffffffffffff16021790555060408201518160010160146101000a81548163ffffffff021916908363ffffffff16021790555050507fcc2ae3c6f6f7f0852f439e9f6b7232491c293c9d1b12c2e8708acfecebb2b45b823360006040516103e89392919061159b565b60405180910390a15050565b6000816040015163ffffffff169050919050565b60606003805480602002602001604051908101604052809291908181526020016000905b828210156104e457838290600052602060002090600202016040518060600160405290816000820160009054906101000a900473ffffffffffffffffffffffffffffffffffffffff1673ffffffffffffffffffffffffffffffffffffffff1673ffffffffffffffffffffffffffffffffffffffff1681526020016000820160149054906101000a900463ffffffff1663ffffffff1663ffffffff1681526020016001820154815250508152602001906001019061042c565b50505050905090565b600060048281548110610529577f4e487b7100000000000000000000000000000000000000000000000000000000600052603260045260246000fd5b9060005260206000209060020201905060018160010160186101000a81548160ff0219169083151502179055505050565b60008054905090565b60606004805480602002602001604051908101604052809291908181526020016000905b828210156106e257838290600052602060002090600202016040518060800160405290816000820180546105ba9061185e565b80601f01602080910402602001604051908101604052809291908181526020018280546105e69061185e565b80156106335780601f1061060857610100808354040283529160200191610633565b820191906000526020600020905b81548152906001019060200180831161061657829003601f168201915b505050505081526020016001820160009054906101000a900473ffffffffffffffffffffffffffffffffffffffff1673ffffffffffffffffffffffffffffffffffffffff1673ffffffffffffffffffffffffffffffffffffffff1681526020016001820160149054906101000a900463ffffffff1663ffffffff1663ffffffff1681526020016001820160189054906101000a900460ff16151515158152505081526020019060010190610587565b50505050905090565b60606006805480602002602001604051908101604052809291908181526020016000905b8282101561084f57838290600052602060002090600202016040518060600160405290816000820180546107429061185e565b80601f016020809104026020016040519081016040528092919081815260200182805461076e9061185e565b80156107bb5780601f10610790576101008083540402835291602001916107bb565b820191906000526020600020905b81548152906001019060200180831161079e57829003601f168201915b505050505081526020016001820160009054906101000a900473ffffffffffffffffffffffffffffffffffffffff1673ffffffffffffffffffffffffffffffffffffffff1673ffffffffffffffffffffffffffffffffffffffff1681526020016001820160149054906101000a900463ffffffff1663ffffffff1663ffffffff16815250508152602001906001019061070f565b50505050905090565b600460405180608001604052808481526020018373ffffffffffffffffffffffffffffffffffffffff168152602001600063ffffffff16815260200160001515815250908060018154018082558091505060019003906000526020600020906002020160009091909190915060008201518160000190805190602001906108e0929190610daa565b5060208201518160010160006101000a81548173ffffffffffffffffffffffffffffffffffffffff021916908373ffffffffffffffffffffffffffffffffffffffff16021790555060408201518160010160146101000a81548163ffffffff021916908363ffffffff16021790555060608201518160010160186101000a81548160ff02191690831515021790555050507fc19c5b38263ad49a9cba5fe959688dafc407c0f9d748757aacc14bb699625ad7823360006040516109a59392919061159b565b60405180910390a15050565b60076020528060005260406000206000915090505481565b42600760003373ffffffffffffffffffffffffffffffffffffffff1673ffffffffffffffffffffffffffffffffffffffff168152602001908152602001600020819055508163ffffffff1660016000828254610a259190611722565b92505081905550610a6b6040518060400160405280600f81526020017f25732068617320646f6e6174656421000000000000000000000000000000000081525033610ce5565b600360405180606001604052803373ffffffffffffffffffffffffffffffffffffffff1681526020018463ffffffff16815260200142815250908060018154018082558091505060019003906000526020600020906002020160009091909190915060008201518160000160006101000a81548173ffffffffffffffffffffffffffffffffffffffff021916908373ffffffffffffffffffffffffffffffffffffffff16021790555060208201518160000160146101000a81548163ffffffff021916908363ffffffff1602179055506040820151816001015550508163ffffffff16600080828254610b5e9190611722565b925050819055508181604001818151610b779190611778565b91509063ffffffff16908163ffffffff16815250507f07bd45509b274e16c538712d7cf14ab884bc78c1f746b21144cb8b6aaa96dc21338342604051610bbf939291906114ac565b60405180910390a15050565b60005481565b600081602001519050919050565b600060048281548110610c1b577f4e487b7100000000000000000000000000000000000000000000000000000000600052603260045260246000fd5b9060005260206000209060020201905060008160010160186101000a81548160ff0219169083151502179055505050565b610ce281604051602401610c609190611549565b6040516020818303038152906040527f41304fac000000000000000000000000000000000000000000000000000000007bffffffffffffffffffffffffffffffffffffffffffffffffffffffff19166020820180517bffffffffffffffffffffffffffffffffffffffffffffffffffffffff8381831617835250505050610d81565b50565b610d7d8282604051602401610cfb92919061156b565b6040516020818303038152906040527f319af333000000000000000000000000000000000000000000000000000000007bffffffffffffffffffffffffffffffffffffffffffffffffffffffff19166020820180517bffffffffffffffffffffffffffffffffffffffffffffffffffffffff8381831617835250505050610d81565b5050565b60008151905060006a636f6e736f6c652e6c6f679050602083016000808483855afa5050505050565b828054610db69061185e565b90600052602060002090601f016020900481019282610dd85760008555610e1f565b82601f10610df157805160ff1916838001178555610e1f565b82800160010185558215610e1f579182015b82811115610e1e578251825591602001919060010190610e03565b5b509050610e2c9190610e30565b5090565b5b80821115610e49576000816000905550600101610e31565b5090565b6000610e60610e5b84611619565b6115f4565b905082815260208101848484011115610e7857600080fd5b610e8384828561181c565b509392505050565b600081359050610e9a8161195f565b92915050565b600081359050610eaf81611976565b92915050565b600082601f830112610ec657600080fd5b8135610ed6848260208601610e4d565b91505092915050565b600060808284031215610ef157600080fd5b610efb60806115f4565b9050600082013567ffffffffffffffff811115610f1757600080fd5b610f2384828501610eb5565b6000830152506020610f3784828501610e8b565b6020830152506040610f4b84828501610fcc565b6040830152506060610f5f84828501610ea0565b60608301525092915050565b600060408284031215610f7d57600080fd5b610f8760406115f4565b90506000610f9784828501610fb7565b6000830152506020610fab84828501610fb7565b60208301525092915050565b600081359050610fc68161198d565b92915050565b600081359050610fdb816119a4565b92915050565b600060208284031215610ff357600080fd5b600061100184828501610e8b565b91505092915050565b6000806040838503121561101d57600080fd5b600083013567ffffffffffffffff81111561103757600080fd5b61104385828601610eb5565b925050602061105485828601610e8b565b9150509250929050565b60006020828403121561107057600080fd5b600082013567ffffffffffffffff81111561108a57600080fd5b61109684828501610edf565b91505092915050565b6000604082840312156110b157600080fd5b60006110bf84828501610f6b565b91505092915050565b6000602082840312156110da57600080fd5b60006110e884828501610fb7565b91505092915050565b6000806040838503121561110457600080fd5b600061111285828601610fcc565b925050602083013567ffffffffffffffff81111561112f57600080fd5b61113b85828601610edf565b9150509250929050565b6000611151838361137b565b60608301905092915050565b600061116983836113bd565b905092915050565b600061117d838361140d565b905092915050565b61118e816117b2565b82525050565b61119d816117b2565b82525050565b60006111ae8261167a565b6111b881856116cd565b93506111c38361164a565b8060005b838110156111f45781516111db8882611145565b97506111e6836116a6565b9250506001810190506111c7565b5085935050505092915050565b600061120c82611685565b61121681856116de565b9350836020820285016112288561165a565b8060005b858110156112645784840389528151611245858261115d565b9450611250836116b3565b925060208a0199505060018101905061122c565b50829750879550505050505092915050565b600061128182611690565b61128b81856116ef565b93508360208202850161129d8561166a565b8060005b858110156112d957848403895281516112ba8582611171565b94506112c5836116c0565b925060208a019950506001810190506112a1565b50829750879550505050505092915050565b6112f4816117c4565b82525050565b6113038161180a565b82525050565b60006113148261169b565b61131e8185611700565b935061132e81856020860161182b565b6113378161194e565b840191505092915050565b600061134d8261169b565b6113578185611711565b935061136781856020860161182b565b6113708161194e565b840191505092915050565b6060820160008201516113916000850182611185565b5060208201516113a4602085018261148e565b5060408201516113b76040850182611470565b50505050565b600060608301600083015184820360008601526113da8282611309565b91505060208301516113ef6020860182611185565b506040830151611402604086018261148e565b508091505092915050565b6000608083016000830151848203600086015261142a8282611309565b915050602083015161143f6020860182611185565b506040830151611452604086018261148e565b50606083015161146560608601826112eb565b508091505092915050565b611479816117f0565b82525050565b611488816117f0565b82525050565b611497816117fa565b82525050565b6114a6816117fa565b82525050565b60006060820190506114c16000830186611194565b6114ce602083018561149d565b6114db604083018461147f565b949350505050565b600060208201905081810360008301526114fd81846111a3565b905092915050565b6000602082019050818103600083015261151f8184611201565b905092915050565b600060208201905081810360008301526115418184611276565b905092915050565b600060208201905081810360008301526115638184611342565b905092915050565b600060408201905081810360008301526115858185611342565b90506115946020830184611194565b9392505050565b600060608201905081810360008301526115b58186611342565b90506115c46020830185611194565b6115d160408301846112fa565b949350505050565b60006020820190506115ee600083018461147f565b92915050565b60006115fe61160f565b905061160a8282611890565b919050565b6000604051905090565b600067ffffffffffffffff8211156116345761163361191f565b5b61163d8261194e565b9050602081019050919050565b6000819050602082019050919050565b6000819050602082019050919050565b6000819050602082019050919050565b600081519050919050565b600081519050919050565b600081519050919050565b600081519050919050565b6000602082019050919050565b6000602082019050919050565b6000602082019050919050565b600082825260208201905092915050565b600082825260208201905092915050565b600082825260208201905092915050565b600082825260208201905092915050565b600082825260208201905092915050565b600061172d826117f0565b9150611738836117f0565b9250827fffffffffffffffffffffffffffffffffffffffffffffffffffffffffffffffff0382111561176d5761176c6118c1565b5b828201905092915050565b6000611783826117fa565b915061178e836117fa565b92508263ffffffff038211156117a7576117a66118c1565b5b828201905092915050565b60006117bd826117d0565b9050919050565b60008115159050919050565b600073ffffffffffffffffffffffffffffffffffffffff82169050919050565b6000819050919050565b600063ffffffff82169050919050565b6000611815826117fa565b9050919050565b82818337600083830152505050565b60005b8381101561184957808201518184015260208101905061182e565b83811115611858576000848401525b50505050565b6000600282049050600182168061187657607f821691505b6020821081141561188a576118896118f0565b5b50919050565b6118998261194e565b810181811067ffffffffffffffff821117156118b8576118b761191f565b5b80604052505050565b7f4e487b7100000000000000000000000000000000000000000000000000000000600052601160045260246000fd5b7f4e487b7100000000000000000000000000000000000000000000000000000000600052602260045260246000fd5b7f4e487b7100000000000000000000000000000000000000000000000000000000600052604160045260246000fd5b6000601f19601f8301169050919050565b611968816117b2565b811461197357600080fd5b50565b61197f816117c4565b811461198a57600080fd5b50565b611996816117f0565b81146119a157600080fd5b50565b6119ad816117fa565b81146119b857600080fd5b5056fea2646970667358221220d9695ec7e047e6e8962596d3433cbfb98043621319f7ed2ce6db24ec9ee3fa8764736f6c63430008040033",
  "linkReferences": {},
  "deployedLinkReferences": {}
}