{
  "_format": "hh-sol-artifact-1",
  "contractName": "Ribon",
  "sourceName": "contracts/Ribon.sol",
  "abi": [
    {
      "inputs": [
        {
          "internalType": "address",
          "name": "_donationToken",
          "type": "address"
        },
        {
          "internalType": "address",
          "name": "_integrationCouncil",
          "type": "address"
        },
        {
          "internalType": "address",
          "name": "_nonProfitCouncil",
          "type": "address"
        }
      ],
      "stateMutability": "nonpayable",
      "type": "constructor"
    },
    {
      "anonymous": false,
      "inputs": [
        {
          "indexed": false,
          "internalType": "bytes32",
          "name": "user",
          "type": "bytes32"
        },
        {
          "indexed": false,
          "internalType": "address",
          "name": "integration",
          "type": "address"
        },
        {
          "indexed": false,
          "internalType": "address",
          "name": "nonProfit",
          "type": "address"
        },
        {
          "indexed": false,
          "internalType": "uint256",
          "name": "amount",
          "type": "uint256"
        }
      ],
      "name": "DonationAdded",
      "type": "event"
    },
    {
      "anonymous": false,
      "inputs": [
        {
          "indexed": false,
          "internalType": "address",
          "name": "integration",
          "type": "address"
        },
        {
          "indexed": false,
          "internalType": "uint256",
          "name": "amount",
          "type": "uint256"
        }
      ],
      "name": "IntegrationBalanceUpdated",
      "type": "event"
    },
    {
      "anonymous": false,
      "inputs": [
        {
          "indexed": false,
          "internalType": "address",
          "name": "nonProfit",
          "type": "address"
        }
      ],
      "name": "NonProfitAdded",
      "type": "event"
    },
    {
      "anonymous": false,
      "inputs": [
        {
          "indexed": false,
          "internalType": "address",
          "name": "nonProfit",
          "type": "address"
        }
      ],
      "name": "NonProfitRemoved",
      "type": "event"
    },
    {
      "anonymous": false,
      "inputs": [
        {
          "indexed": false,
          "internalType": "address",
          "name": "promoter",
          "type": "address"
        },
        {
          "indexed": false,
          "internalType": "uint256",
          "name": "amount",
          "type": "uint256"
        }
      ],
      "name": "PoolBalanceIncreased",
      "type": "event"
    },
    {
      "inputs": [
        {
          "internalType": "uint256",
          "name": "_amount",
          "type": "uint256"
        }
      ],
      "name": "addDonationPoolBalance",
      "outputs": [],
      "stateMutability": "payable",
      "type": "function"
    },
    {
      "inputs": [
        {
          "internalType": "address",
          "name": "_nonProfit",
          "type": "address"
        }
      ],
      "name": "addNonProfitToWhitelist",
      "outputs": [],
      "stateMutability": "nonpayable",
      "type": "function"
    },
    {
      "inputs": [
        {
          "internalType": "address",
          "name": "_nonProfit",
          "type": "address"
        },
        {
          "internalType": "bytes32",
          "name": "_user",
          "type": "bytes32"
        },
        {
          "internalType": "uint256",
          "name": "_amount",
          "type": "uint256"
        }
      ],
      "name": "donateThroughIntegration",
      "outputs": [],
      "stateMutability": "payable",
      "type": "function"
    },
    {
      "inputs": [],
      "name": "donationPoolBalance",
      "outputs": [
        {
          "internalType": "uint256",
          "name": "",
          "type": "uint256"
        }
      ],
      "stateMutability": "view",
      "type": "function"
    },
    {
      "inputs": [],
      "name": "donationToken",
      "outputs": [
        {
          "internalType": "contract IERC20",
          "name": "",
          "type": "address"
        }
      ],
      "stateMutability": "view",
      "type": "function"
    },
    {
      "inputs": [
        {
          "internalType": "address",
          "name": "_integration",
          "type": "address"
        }
      ],
      "name": "getIntegrationBalance",
      "outputs": [
        {
          "internalType": "uint256",
          "name": "",
          "type": "uint256"
        }
      ],
      "stateMutability": "view",
      "type": "function"
    },
    {
      "inputs": [],
      "name": "getIntegrationCouncil",
      "outputs": [
        {
          "internalType": "address",
          "name": "",
          "type": "address"
        }
      ],
      "stateMutability": "view",
      "type": "function"
    },
    {
      "inputs": [],
      "name": "integrationCouncil",
      "outputs": [
        {
          "internalType": "address",
          "name": "",
          "type": "address"
        }
      ],
      "stateMutability": "view",
      "type": "function"
    },
    {
      "inputs": [
        {
          "internalType": "address",
          "name": "",
          "type": "address"
        }
      ],
      "name": "integrations",
      "outputs": [
        {
          "internalType": "uint256",
          "name": "",
          "type": "uint256"
        }
      ],
      "stateMutability": "view",
      "type": "function"
    },
    {
      "inputs": [
        {
          "internalType": "address",
          "name": "_nonProfit",
          "type": "address"
        }
      ],
      "name": "isNonProfitOnWhitelist",
      "outputs": [
        {
          "internalType": "bool",
          "name": "",
          "type": "bool"
        }
      ],
      "stateMutability": "view",
      "type": "function"
    },
    {
      "inputs": [],
      "name": "nonProfitCouncil",
      "outputs": [
        {
          "internalType": "address",
          "name": "",
          "type": "address"
        }
      ],
      "stateMutability": "view",
      "type": "function"
    },
    {
      "inputs": [
        {
          "internalType": "address",
          "name": "",
          "type": "address"
        }
      ],
      "name": "nonProfits",
      "outputs": [
        {
          "internalType": "bool",
          "name": "",
          "type": "bool"
        }
      ],
      "stateMutability": "view",
      "type": "function"
    },
    {
      "inputs": [
        {
          "internalType": "address",
          "name": "_nonProfit",
          "type": "address"
        }
      ],
      "name": "removeNonProfitFromWhitelist",
      "outputs": [],
      "stateMutability": "nonpayable",
      "type": "function"
    },
    {
      "inputs": [
        {
          "internalType": "address",
          "name": "_integration",
          "type": "address"
        },
        {
          "internalType": "uint256",
          "name": "_amount",
          "type": "uint256"
        }
      ],
      "name": "updateIntegrationBalance",
      "outputs": [],
      "stateMutability": "nonpayable",
      "type": "function"
    }
  ],
  "bytecode": "0x60806040523480156200001157600080fd5b5060405162001b7638038062001b7683398181016040528101906200003791906200016c565b826000806101000a81548173ffffffffffffffffffffffffffffffffffffffff021916908373ffffffffffffffffffffffffffffffffffffffff16021790555081600160006101000a81548173ffffffffffffffffffffffffffffffffffffffff021916908373ffffffffffffffffffffffffffffffffffffffff16021790555080600260006101000a81548173ffffffffffffffffffffffffffffffffffffffff021916908373ffffffffffffffffffffffffffffffffffffffff160217905550505050620001c8565b600080fd5b600073ffffffffffffffffffffffffffffffffffffffff82169050919050565b6000620001348262000107565b9050919050565b620001468162000127565b81146200015257600080fd5b50565b60008151905062000166816200013b565b92915050565b60008060006060848603121562000188576200018762000102565b5b6000620001988682870162000155565b9350506020620001ab8682870162000155565b9250506040620001be8682870162000155565b9150509250925092565b61199e80620001d86000396000f3fe6080604052600436106100dd5760003560e01c80636104647c1161007f57806389086b7a1161005957806389086b7a146102c057806389d32cd3146102fd578063a52c4b5c14610319578063deb6347614610344576100dd565b80636104647c1461021b57806373da40c7146102585780637aea595614610283576100dd565b80631777b23b116100bb5780631777b23b14610175578063232f94241461019e5780632e11f00a146101c957806350237c89146101f2576100dd565b806305e64794146100e25780630df721591461011f578063132fdb0b1461014a575b600080fd5b3480156100ee57600080fd5b5061010960048036038101906101049190610f7c565b610360565b6040516101169190610fc2565b60405180910390f35b34801561012b57600080fd5b50610134610378565b604051610141919061103c565b60405180910390f35b34801561015657600080fd5b5061015f61039c565b60405161016c9190611066565b60405180910390f35b34801561018157600080fd5b5061019c600480360381019061019791906110ad565b6103c2565b005b3480156101aa57600080fd5b506101b361053d565b6040516101c09190611066565b60405180910390f35b3480156101d557600080fd5b506101f060048036038101906101eb9190610f7c565b610567565b005b3480156101fe57600080fd5b5061021960048036038101906102149190610f7c565b610689565b005b34801561022757600080fd5b50610242600480360381019061023d9190610f7c565b6107ab565b60405161024f9190610fc2565b60405180910390f35b34801561026457600080fd5b5061026d6107f4565b60405161027a9190611066565b60405180910390f35b34801561028f57600080fd5b506102aa60048036038101906102a59190610f7c565b61081a565b6040516102b79190611108565b60405180910390f35b3480156102cc57600080fd5b506102e760048036038101906102e29190610f7c565b61083a565b6040516102f49190611108565b60405180910390f35b61031760048036038101906103129190611159565b610890565b005b34801561032557600080fd5b5061032e610acb565b60405161033b9190610fc2565b60405180910390f35b61035e600480360381019061035991906111ac565b610ad1565b005b60056020528060005260406000206000915090505481565b60008054906101000a900473ffffffffffffffffffffffffffffffffffffffff1681565b600160009054906101000a900473ffffffffffffffffffffffffffffffffffffffff1681565b60008160035403101561040a576040517f08c379a00000000000000000000000000000000000000000000000000000000081526004016104019061125c565b60405180910390fd5b600160009054906101000a900473ffffffffffffffffffffffffffffffffffffffff1673ffffffffffffffffffffffffffffffffffffffff163373ffffffffffffffffffffffffffffffffffffffff161461049a576040517f08c379a0000000000000000000000000000000000000000000000000000000008152600401610491906112ee565b60405180910390fd5b8060036000828254039250508190555080600560008473ffffffffffffffffffffffffffffffffffffffff1673ffffffffffffffffffffffffffffffffffffffff16815260200190815260200160002060008282546104f9919061133d565b925050819055507fefe12cc55efb7b747cf4751dd33ab7476c5a72c16410ce32d665698184cca6628282604051610531929190611393565b60405180910390a15050565b6000600160009054906101000a900473ffffffffffffffffffffffffffffffffffffffff16905090565b600260009054906101000a900473ffffffffffffffffffffffffffffffffffffffff1673ffffffffffffffffffffffffffffffffffffffff163373ffffffffffffffffffffffffffffffffffffffff16146105f7576040517f08c379a00000000000000000000000000000000000000000000000000000000081526004016105ee90611408565b60405180910390fd5b6001600460008373ffffffffffffffffffffffffffffffffffffffff1673ffffffffffffffffffffffffffffffffffffffff16815260200190815260200160002060006101000a81548160ff0219169083151502179055507f48cd054a0d5f7a715ef556531456f832fa4713887fd9619b1994499164bfdb348160405161067e9190611066565b60405180910390a150565b600260009054906101000a900473ffffffffffffffffffffffffffffffffffffffff1673ffffffffffffffffffffffffffffffffffffffff163373ffffffffffffffffffffffffffffffffffffffff1614610719576040517f08c379a000000000000000000000000000000000000000000000000000000000815260040161071090611408565b60405180910390fd5b6000600460008373ffffffffffffffffffffffffffffffffffffffff1673ffffffffffffffffffffffffffffffffffffffff16815260200190815260200160002060006101000a81548160ff0219169083151502179055507ff4c0882c02504b57aef9b59434f24674dca5b42da5bc5a3da8782b4ec472f264816040516107a09190611066565b60405180910390a150565b6000600560008373ffffffffffffffffffffffffffffffffffffffff1673ffffffffffffffffffffffffffffffffffffffff168152602001908152602001600020549050919050565b600260009054906101000a900473ffffffffffffffffffffffffffffffffffffffff1681565b60046020528060005260406000206000915054906101000a900460ff1681565b6000600460008373ffffffffffffffffffffffffffffffffffffffff1673ffffffffffffffffffffffffffffffffffffffff16815260200190815260200160002060009054906101000a900460ff169050919050565b60011515600460008573ffffffffffffffffffffffffffffffffffffffff1673ffffffffffffffffffffffffffffffffffffffff16815260200190815260200160002060009054906101000a900460ff16151514610923576040517f08c379a000000000000000000000000000000000000000000000000000000000815260040161091a9061149a565b60405180910390fd5b80600560003373ffffffffffffffffffffffffffffffffffffffff1673ffffffffffffffffffffffffffffffffffffffff1681526020019081526020016000205410156109a5576040517f08c379a000000000000000000000000000000000000000000000000000000000815260040161099c9061152c565b60405180910390fd5b600081116109e8576040517f08c379a00000000000000000000000000000000000000000000000000000000081526004016109df90611598565b60405180910390fd5b80600560003373ffffffffffffffffffffffffffffffffffffffff1673ffffffffffffffffffffffffffffffffffffffff1681526020019081526020016000206000828254610a3791906115b8565b92505081905550610a89838260008054906101000a900473ffffffffffffffffffffffffffffffffffffffff1673ffffffffffffffffffffffffffffffffffffffff16610b9d9092919063ffffffff16565b7f03648ca2afaaff870f2349ab3ff3431e0643787a1998d322afd18ed2aa9a863c82338584604051610abe94939291906115fb565b60405180910390a1505050565b60035481565b60008111610b14576040517f08c379a0000000000000000000000000000000000000000000000000000000008152600401610b0b90611598565b60405180910390fd5b610b6133308360008054906101000a900473ffffffffffffffffffffffffffffffffffffffff1673ffffffffffffffffffffffffffffffffffffffff16610c23909392919063ffffffff16565b7fd9795098f5c916aaded6e20f0dbcc3e7a312fcf25e5404964b94f203b20e445c3382604051610b92929190611393565b60405180910390a150565b610c1e8363a9059cbb60e01b8484604051602401610bbc929190611393565b604051602081830303815290604052907bffffffffffffffffffffffffffffffffffffffffffffffffffffffff19166020820180517bffffffffffffffffffffffffffffffffffffffffffffffffffffffff8381831617835250505050610cac565b505050565b610ca6846323b872dd60e01b858585604051602401610c4493929190611640565b604051602081830303815290604052907bffffffffffffffffffffffffffffffffffffffffffffffffffffffff19166020820180517bffffffffffffffffffffffffffffffffffffffffffffffffffffffff8381831617835250505050610cac565b50505050565b6000610d0e826040518060400160405280602081526020017f5361666545524332303a206c6f772d6c6576656c2063616c6c206661696c65648152508573ffffffffffffffffffffffffffffffffffffffff16610d739092919063ffffffff16565b9050600081511115610d6e5780806020019051810190610d2e91906116a3565b610d6d576040517f08c379a0000000000000000000000000000000000000000000000000000000008152600401610d6490611742565b60405180910390fd5b5b505050565b6060610d828484600085610d8b565b90509392505050565b606082471015610dd0576040517f08c379a0000000000000000000000000000000000000000000000000000000008152600401610dc7906117d4565b60405180910390fd5b610dd985610e9f565b610e18576040517f08c379a0000000000000000000000000000000000000000000000000000000008152600401610e0f90611840565b60405180910390fd5b6000808673ffffffffffffffffffffffffffffffffffffffff168587604051610e4191906118da565b60006040518083038185875af1925050503d8060008114610e7e576040519150601f19603f3d011682016040523d82523d6000602084013e610e83565b606091505b5091509150610e93828286610eb2565b92505050949350505050565b600080823b905060008111915050919050565b60608315610ec257829050610f12565b600083511115610ed55782518084602001fd5b816040517f08c379a0000000000000000000000000000000000000000000000000000000008152600401610f099190611946565b60405180910390fd5b9392505050565b600080fd5b600073ffffffffffffffffffffffffffffffffffffffff82169050919050565b6000610f4982610f1e565b9050919050565b610f5981610f3e565b8114610f6457600080fd5b50565b600081359050610f7681610f50565b92915050565b600060208284031215610f9257610f91610f19565b5b6000610fa084828501610f67565b91505092915050565b6000819050919050565b610fbc81610fa9565b82525050565b6000602082019050610fd76000830184610fb3565b92915050565b6000819050919050565b6000611002610ffd610ff884610f1e565b610fdd565b610f1e565b9050919050565b600061101482610fe7565b9050919050565b600061102682611009565b9050919050565b6110368161101b565b82525050565b6000602082019050611051600083018461102d565b92915050565b61106081610f3e565b82525050565b600060208201905061107b6000830184611057565b92915050565b61108a81610fa9565b811461109557600080fd5b50565b6000813590506110a781611081565b92915050565b600080604083850312156110c4576110c3610f19565b5b60006110d285828601610f67565b92505060206110e385828601611098565b9150509250929050565b60008115159050919050565b611102816110ed565b82525050565b600060208201905061111d60008301846110f9565b92915050565b6000819050919050565b61113681611123565b811461114157600080fd5b50565b6000813590506111538161112d565b92915050565b60008060006060848603121561117257611171610f19565b5b600061118086828701610f67565b935050602061119186828701611144565b92505060406111a286828701611098565b9150509250925092565b6000602082840312156111c2576111c1610f19565b5b60006111d084828501611098565b91505092915050565b600082825260208201905092915050565b7f446f6e6174696f6e20706f6f6c2062616c616e63652073686f756c642062652060008201527f626967676572207468616e203000000000000000000000000000000000000000602082015250565b6000611246602d836111d9565b9150611251826111ea565b604082019050919050565b6000602082019050818103600083015261127581611239565b9050919050565b7f596f7520617265206e6f74206f6e2074686520696e746567726174696f6e206360008201527f6f756e63696c2e00000000000000000000000000000000000000000000000000602082015250565b60006112d86027836111d9565b91506112e38261127c565b604082019050919050565b60006020820190508181036000830152611307816112cb565b9050919050565b7f4e487b7100000000000000000000000000000000000000000000000000000000600052601160045260246000fd5b600061134882610fa9565b915061135383610fa9565b9250827fffffffffffffffffffffffffffffffffffffffffffffffffffffffffffffffff038211156113885761138761130e565b5b828201905092915050565b60006040820190506113a86000830185611057565b6113b56020830184610fb3565b9392505050565b7f596f7520617265206e6f74206e6f6e2070726f66697420636f756e63696c2e00600082015250565b60006113f2601f836111d9565b91506113fd826113bc565b602082019050919050565b60006020820190508181036000830152611421816113e5565b9050919050565b7f44657374696e6174696f6e206973206e6f74206f6e206e6f6e2070726f66697460008201527f2077686974656c69737400000000000000000000000000000000000000000000602082015250565b6000611484602a836111d9565b915061148f82611428565b604082019050919050565b600060208201905081810360008301526114b381611477565b9050919050565b7f496e746567726174696f6e2062616c616e63652073686f756c6420626520626960008201527f67676572207468616e20616d6f756e7400000000000000000000000000000000602082015250565b60006115166030836111d9565b9150611521826114ba565b604082019050919050565b6000602082019050818103600083015261154581611509565b9050919050565b7f416d6f756e742073686f756c6420626520626967676572207468616e20300000600082015250565b6000611582601e836111d9565b915061158d8261154c565b602082019050919050565b600060208201905081810360008301526115b181611575565b9050919050565b60006115c382610fa9565b91506115ce83610fa9565b9250828210156115e1576115e061130e565b5b828203905092915050565b6115f581611123565b82525050565b600060808201905061161060008301876115ec565b61161d6020830186611057565b61162a6040830185611057565b6116376060830184610fb3565b95945050505050565b60006060820190506116556000830186611057565b6116626020830185611057565b61166f6040830184610fb3565b949350505050565b611680816110ed565b811461168b57600080fd5b50565b60008151905061169d81611677565b92915050565b6000602082840312156116b9576116b8610f19565b5b60006116c78482850161168e565b91505092915050565b7f5361666545524332303a204552433230206f7065726174696f6e20646964206e60008201527f6f74207375636365656400000000000000000000000000000000000000000000602082015250565b600061172c602a836111d9565b9150611737826116d0565b604082019050919050565b6000602082019050818103600083015261175b8161171f565b9050919050565b7f416464726573733a20696e73756666696369656e742062616c616e636520666f60008201527f722063616c6c0000000000000000000000000000000000000000000000000000602082015250565b60006117be6026836111d9565b91506117c982611762565b604082019050919050565b600060208201905081810360008301526117ed816117b1565b9050919050565b7f416464726573733a2063616c6c20746f206e6f6e2d636f6e7472616374000000600082015250565b600061182a601d836111d9565b9150611835826117f4565b602082019050919050565b600060208201905081810360008301526118598161181d565b9050919050565b600081519050919050565b600081905092915050565b60005b83811015611894578082015181840152602081019050611879565b838111156118a3576000848401525b50505050565b60006118b482611860565b6118be818561186b565b93506118ce818560208601611876565b80840191505092915050565b60006118e682846118a9565b915081905092915050565b600081519050919050565b6000601f19601f8301169050919050565b6000611918826118f1565b61192281856111d9565b9350611932818560208601611876565b61193b816118fc565b840191505092915050565b60006020820190508181036000830152611960818461190d565b90509291505056fea2646970667358221220b54b3167f0ecb6b9850c7e20c7c4dc8551bc3d9be7e5f49ed4d9cef808808a5364736f6c634300080b0033",
  "linkReferences": {},
  "deployedLinkReferences": {}
}