{
  "_format": "hh-sol-artifact-1",
  "contractName": "Ribon",
  "sourceName": "contracts/Ribon.sol",
  "abi": [
    {
      "inputs": [
        {
          "internalType": "address",
          "name": "_donationToken",
          "type": "address"
        },
        {
          "internalType": "address",
          "name": "_governanceCouncil",
          "type": "address"
        },
        {
          "internalType": "address",
          "name": "_integrationCouncil",
          "type": "address"
        },
        {
          "internalType": "address",
          "name": "_nonProfitCouncil",
          "type": "address"
        }
      ],
      "stateMutability": "nonpayable",
      "type": "constructor"
    },
    {
      "anonymous": false,
      "inputs": [
        {
          "indexed": false,
          "internalType": "bytes32",
          "name": "user",
          "type": "bytes32"
        },
        {
          "indexed": false,
          "internalType": "address",
          "name": "integration",
          "type": "address"
        },
        {
          "indexed": false,
          "internalType": "address",
          "name": "nonProfit",
          "type": "address"
        },
        {
          "indexed": false,
          "internalType": "uint256",
          "name": "amount",
          "type": "uint256"
        }
      ],
      "name": "DonationAdded",
      "type": "event"
    },
    {
      "anonymous": false,
      "inputs": [
        {
          "indexed": false,
          "internalType": "address",
          "name": "integration",
          "type": "address"
        },
        {
          "indexed": false,
          "internalType": "uint256",
          "name": "amount",
          "type": "uint256"
        }
      ],
      "name": "IntegrationBalanceAdded",
      "type": "event"
    },
    {
      "anonymous": false,
      "inputs": [
        {
          "indexed": false,
          "internalType": "address",
          "name": "integration",
          "type": "address"
        },
        {
          "indexed": false,
          "internalType": "uint256",
          "name": "amount",
          "type": "uint256"
        }
      ],
      "name": "IntegrationBalanceRemoved",
      "type": "event"
    },
    {
      "anonymous": false,
      "inputs": [
        {
          "indexed": false,
          "internalType": "address",
          "name": "nonProfit",
          "type": "address"
        }
      ],
      "name": "NonProfitAdded",
      "type": "event"
    },
    {
      "anonymous": false,
      "inputs": [
        {
          "indexed": false,
          "internalType": "address",
          "name": "nonProfit",
          "type": "address"
        }
      ],
      "name": "NonProfitRemoved",
      "type": "event"
    },
    {
      "anonymous": false,
      "inputs": [
        {
          "indexed": false,
          "internalType": "address",
          "name": "promoter",
          "type": "address"
        },
        {
          "indexed": false,
          "internalType": "bytes32",
          "name": "user",
          "type": "bytes32"
        },
        {
          "indexed": false,
          "internalType": "uint256",
          "name": "amount",
          "type": "uint256"
        }
      ],
      "name": "PoolBalanceIncreased",
      "type": "event"
    },
    {
      "inputs": [
        {
          "internalType": "uint256",
          "name": "_amount",
          "type": "uint256"
        },
        {
          "internalType": "bytes32",
          "name": "_user",
          "type": "bytes32"
        }
      ],
      "name": "addDonationPoolBalance",
      "outputs": [],
      "stateMutability": "nonpayable",
      "type": "function"
    },
    {
      "inputs": [
        {
          "internalType": "address",
          "name": "_integration",
          "type": "address"
        },
        {
          "internalType": "uint256",
          "name": "_amount",
          "type": "uint256"
        }
      ],
      "name": "addIntegrationBalance",
      "outputs": [],
      "stateMutability": "nonpayable",
      "type": "function"
    },
    {
      "inputs": [
        {
          "internalType": "address",
          "name": "_nonProfit",
          "type": "address"
        }
      ],
      "name": "addNonProfitToWhitelist",
      "outputs": [],
      "stateMutability": "nonpayable",
      "type": "function"
    },
    {
      "inputs": [
        {
          "internalType": "address",
          "name": "_nonProfit",
          "type": "address"
        },
        {
          "internalType": "bytes32",
          "name": "_user",
          "type": "bytes32"
        },
        {
          "internalType": "uint256",
          "name": "_amount",
          "type": "uint256"
        }
      ],
      "name": "donateThroughIntegration",
      "outputs": [],
      "stateMutability": "nonpayable",
      "type": "function"
    },
    {
      "inputs": [],
      "name": "donationPoolBalance",
      "outputs": [
        {
          "internalType": "uint256",
          "name": "",
          "type": "uint256"
        }
      ],
      "stateMutability": "view",
      "type": "function"
    },
    {
      "inputs": [],
      "name": "donationToken",
      "outputs": [
        {
          "internalType": "contract IERC20",
          "name": "",
          "type": "address"
        }
      ],
      "stateMutability": "view",
      "type": "function"
    },
    {
      "inputs": [],
      "name": "getDonationPoolBalance",
      "outputs": [
        {
          "internalType": "uint256",
          "name": "",
          "type": "uint256"
        }
      ],
      "stateMutability": "view",
      "type": "function"
    },
    {
      "inputs": [
        {
          "internalType": "address",
          "name": "_integration",
          "type": "address"
        }
      ],
      "name": "getIntegrationBalance",
      "outputs": [
        {
          "internalType": "uint256",
          "name": "",
          "type": "uint256"
        }
      ],
      "stateMutability": "view",
      "type": "function"
    },
    {
      "inputs": [],
      "name": "getIntegrationCouncil",
      "outputs": [
        {
          "internalType": "address",
          "name": "",
          "type": "address"
        }
      ],
      "stateMutability": "view",
      "type": "function"
    },
    {
      "inputs": [],
      "name": "getNonProfitCouncil",
      "outputs": [
        {
          "internalType": "address",
          "name": "",
          "type": "address"
        }
      ],
      "stateMutability": "view",
      "type": "function"
    },
    {
      "inputs": [],
      "name": "governanceCouncil",
      "outputs": [
        {
          "internalType": "address",
          "name": "",
          "type": "address"
        }
      ],
      "stateMutability": "view",
      "type": "function"
    },
    {
      "inputs": [],
      "name": "integrationCouncil",
      "outputs": [
        {
          "internalType": "address",
          "name": "",
          "type": "address"
        }
      ],
      "stateMutability": "view",
      "type": "function"
    },
    {
      "inputs": [
        {
          "internalType": "address",
          "name": "",
          "type": "address"
        }
      ],
      "name": "integrations",
      "outputs": [
        {
          "internalType": "uint256",
          "name": "",
          "type": "uint256"
        }
      ],
      "stateMutability": "view",
      "type": "function"
    },
    {
      "inputs": [
        {
          "internalType": "address",
          "name": "_nonProfit",
          "type": "address"
        }
      ],
      "name": "isNonProfitOnWhitelist",
      "outputs": [
        {
          "internalType": "bool",
          "name": "",
          "type": "bool"
        }
      ],
      "stateMutability": "view",
      "type": "function"
    },
    {
      "inputs": [],
      "name": "nonProfitCouncil",
      "outputs": [
        {
          "internalType": "address",
          "name": "",
          "type": "address"
        }
      ],
      "stateMutability": "view",
      "type": "function"
    },
    {
      "inputs": [
        {
          "internalType": "address",
          "name": "",
          "type": "address"
        }
      ],
      "name": "nonProfits",
      "outputs": [
        {
          "internalType": "bool",
          "name": "",
          "type": "bool"
        }
      ],
      "stateMutability": "view",
      "type": "function"
    },
    {
      "inputs": [
        {
          "internalType": "address",
          "name": "_integration",
          "type": "address"
        },
        {
          "internalType": "uint256",
          "name": "_amount",
          "type": "uint256"
        }
      ],
      "name": "removeIntegrationBalance",
      "outputs": [],
      "stateMutability": "nonpayable",
      "type": "function"
    },
    {
      "inputs": [
        {
          "internalType": "address",
          "name": "_nonProfit",
          "type": "address"
        }
      ],
      "name": "removeNonProfitFromWhitelist",
      "outputs": [],
      "stateMutability": "nonpayable",
      "type": "function"
    },
    {
      "inputs": [
        {
          "internalType": "address",
          "name": "_integrationCouncil",
          "type": "address"
        }
      ],
      "name": "setIntegrationCouncil",
      "outputs": [],
      "stateMutability": "nonpayable",
      "type": "function"
    },
    {
      "inputs": [
        {
          "internalType": "address",
          "name": "_nonProfitCouncil",
          "type": "address"
        }
      ],
      "name": "setNonProfitCouncil",
      "outputs": [],
      "stateMutability": "nonpayable",
      "type": "function"
    },
    {
      "inputs": [],
      "name": "transferDonationPoolBalance",
      "outputs": [],
      "stateMutability": "nonpayable",
      "type": "function"
    }
  ],
  "bytecode": "0x60806040523480156200001157600080fd5b5060405162002225380380620022258339818101604052810190620000379190620001ae565b836000806101000a81548173ffffffffffffffffffffffffffffffffffffffff021916908373ffffffffffffffffffffffffffffffffffffffff16021790555082600160006101000a81548173ffffffffffffffffffffffffffffffffffffffff021916908373ffffffffffffffffffffffffffffffffffffffff16021790555081600260006101000a81548173ffffffffffffffffffffffffffffffffffffffff021916908373ffffffffffffffffffffffffffffffffffffffff16021790555080600360006101000a81548173ffffffffffffffffffffffffffffffffffffffff021916908373ffffffffffffffffffffffffffffffffffffffff1602179055505050505062000220565b600080fd5b600073ffffffffffffffffffffffffffffffffffffffff82169050919050565b6000620001768262000149565b9050919050565b620001888162000169565b81146200019457600080fd5b50565b600081519050620001a8816200017d565b92915050565b60008060008060808587031215620001cb57620001ca62000144565b5b6000620001db8782880162000197565b9450506020620001ee8782880162000197565b9350506040620002018782880162000197565b9250506060620002148782880162000197565b91505092959194509250565b611ff580620002306000396000f3fe608060405234801561001057600080fd5b50600436106101375760003560e01c806365296d0c116100b857806389d32cd31161007c57806389d32cd31461033e578063a52c4b5c1461035a578063b4d4bb0e14610378578063b79981f614610394578063c281605d1461039e578063deb1631f146103ba57610137565b806365296d0c1461028457806373da40c7146102a257806374a58777146102c05780637aea5956146102de57806389086b7a1461030e57610137565b8063232f9424116100ff578063232f9424146101e25780632e11f00a1461020057806350237c891461021c57806356dd3a16146102385780636104647c1461025457610137565b806305e647941461013c5780630df721591461016c578063132fdb0b1461018a57806317698eee146101a85780631adef45d146101c6575b600080fd5b6101566004803603810190610151919061151d565b6103d6565b6040516101639190611563565b60405180910390f35b6101746103ee565b60405161018191906115dd565b60405180910390f35b610192610412565b60405161019f9190611607565b60405180910390f35b6101b0610438565b6040516101bd9190611607565b60405180910390f35b6101e060048036038101906101db919061151d565b61045e565b005b6101ea610532565b6040516101f79190611607565b60405180910390f35b61021a6004803603810190610215919061151d565b61055c565b005b6102366004803603810190610231919061151d565b61067e565b005b610252600480360381019061024d919061151d565b6107a0565b005b61026e6004803603810190610269919061151d565b610874565b60405161027b9190611563565b60405180910390f35b61028c6108bd565b6040516102999190611563565b60405180910390f35b6102aa6108c7565b6040516102b79190611607565b60405180910390f35b6102c86108ed565b6040516102d59190611607565b60405180910390f35b6102f860048036038101906102f3919061151d565b610917565b604051610305919061163d565b60405180910390f35b6103286004803603810190610323919061151d565b610937565b604051610335919061163d565b60405180910390f35b610358600480360381019061035391906116ba565b61098d565b005b610362610bc8565b60405161036f9190611563565b60405180910390f35b610392600480360381019061038d919061170d565b610bce565b005b61039c610cb6565b005b6103b860048036038101906103b3919061174d565b610d9d565b005b6103d460048036038101906103cf919061174d565b610f8c565b005b60066020528060005260406000206000915090505481565b60008054906101000a900473ffffffffffffffffffffffffffffffffffffffff1681565b600260009054906101000a900473ffffffffffffffffffffffffffffffffffffffff1681565b600160009054906101000a900473ffffffffffffffffffffffffffffffffffffffff1681565b600160009054906101000a900473ffffffffffffffffffffffffffffffffffffffff1673ffffffffffffffffffffffffffffffffffffffff163373ffffffffffffffffffffffffffffffffffffffff16146104ee576040517f08c379a00000000000000000000000000000000000000000000000000000000081526004016104e590611810565b60405180910390fd5b80600360006101000a81548173ffffffffffffffffffffffffffffffffffffffff021916908373ffffffffffffffffffffffffffffffffffffffff16021790555050565b6000600260009054906101000a900473ffffffffffffffffffffffffffffffffffffffff16905090565b600360009054906101000a900473ffffffffffffffffffffffffffffffffffffffff1673ffffffffffffffffffffffffffffffffffffffff163373ffffffffffffffffffffffffffffffffffffffff16146105ec576040517f08c379a00000000000000000000000000000000000000000000000000000000081526004016105e3906118a2565b60405180910390fd5b6001600560008373ffffffffffffffffffffffffffffffffffffffff1673ffffffffffffffffffffffffffffffffffffffff16815260200190815260200160002060006101000a81548160ff0219169083151502179055507f48cd054a0d5f7a715ef556531456f832fa4713887fd9619b1994499164bfdb34816040516106739190611607565b60405180910390a150565b600360009054906101000a900473ffffffffffffffffffffffffffffffffffffffff1673ffffffffffffffffffffffffffffffffffffffff163373ffffffffffffffffffffffffffffffffffffffff161461070e576040517f08c379a0000000000000000000000000000000000000000000000000000000008152600401610705906118a2565b60405180910390fd5b6000600560008373ffffffffffffffffffffffffffffffffffffffff1673ffffffffffffffffffffffffffffffffffffffff16815260200190815260200160002060006101000a81548160ff0219169083151502179055507ff4c0882c02504b57aef9b59434f24674dca5b42da5bc5a3da8782b4ec472f264816040516107959190611607565b60405180910390a150565b600160009054906101000a900473ffffffffffffffffffffffffffffffffffffffff1673ffffffffffffffffffffffffffffffffffffffff163373ffffffffffffffffffffffffffffffffffffffff1614610830576040517f08c379a000000000000000000000000000000000000000000000000000000000815260040161082790611810565b60405180910390fd5b80600260006101000a81548173ffffffffffffffffffffffffffffffffffffffff021916908373ffffffffffffffffffffffffffffffffffffffff16021790555050565b6000600660008373ffffffffffffffffffffffffffffffffffffffff1673ffffffffffffffffffffffffffffffffffffffff168152602001908152602001600020549050919050565b6000600454905090565b600360009054906101000a900473ffffffffffffffffffffffffffffffffffffffff1681565b6000600360009054906101000a900473ffffffffffffffffffffffffffffffffffffffff16905090565b60056020528060005260406000206000915054906101000a900460ff1681565b6000600560008373ffffffffffffffffffffffffffffffffffffffff1673ffffffffffffffffffffffffffffffffffffffff16815260200190815260200160002060009054906101000a900460ff169050919050565b60011515600560008573ffffffffffffffffffffffffffffffffffffffff1673ffffffffffffffffffffffffffffffffffffffff16815260200190815260200160002060009054906101000a900460ff16151514610a20576040517f08c379a0000000000000000000000000000000000000000000000000000000008152600401610a179061190e565b60405180910390fd5b80600660003373ffffffffffffffffffffffffffffffffffffffff1673ffffffffffffffffffffffffffffffffffffffff168152602001908152602001600020541015610aa2576040517f08c379a0000000000000000000000000000000000000000000000000000000008152600401610a999061197a565b60405180910390fd5b60008111610ae5576040517f08c379a0000000000000000000000000000000000000000000000000000000008152600401610adc906119e6565b60405180910390fd5b80600660003373ffffffffffffffffffffffffffffffffffffffff1673ffffffffffffffffffffffffffffffffffffffff1681526020019081526020016000206000828254610b349190611a35565b92505081905550610b86838260008054906101000a900473ffffffffffffffffffffffffffffffffffffffff1673ffffffffffffffffffffffffffffffffffffffff1661113e9092919063ffffffff16565b7f03648ca2afaaff870f2349ab3ff3431e0643787a1998d322afd18ed2aa9a863c82338584604051610bbb9493929190611a78565b60405180910390a1505050565b60045481565b60008211610c11576040517f08c379a0000000000000000000000000000000000000000000000000000000008152600401610c08906119e6565b60405180910390fd5b610c5e33308460008054906101000a900473ffffffffffffffffffffffffffffffffffffffff1673ffffffffffffffffffffffffffffffffffffffff166111c4909392919063ffffffff16565b8160046000828254610c709190611abd565b925050819055507f5c1f172e91f09b99819f6f5031c8a27f8a625a96dff93ed055a502452d6aa781338284604051610caa93929190611b13565b60405180910390a15050565b600160009054906101000a900473ffffffffffffffffffffffffffffffffffffffff1673ffffffffffffffffffffffffffffffffffffffff163373ffffffffffffffffffffffffffffffffffffffff1614610d46576040517f08c379a0000000000000000000000000000000000000000000000000000000008152600401610d3d90611810565b60405180910390fd5b610d933360045460008054906101000a900473ffffffffffffffffffffffffffffffffffffffff1673ffffffffffffffffffffffffffffffffffffffff1661113e9092919063ffffffff16565b6000600481905550565b600260009054906101000a900473ffffffffffffffffffffffffffffffffffffffff1673ffffffffffffffffffffffffffffffffffffffff163373ffffffffffffffffffffffffffffffffffffffff1614610e2d576040517f08c379a0000000000000000000000000000000000000000000000000000000008152600401610e2490611bbc565b60405180910390fd5b80600660008473ffffffffffffffffffffffffffffffffffffffff1673ffffffffffffffffffffffffffffffffffffffff168152602001908152602001600020541015610eaf576040517f08c379a0000000000000000000000000000000000000000000000000000000008152600401610ea690611c4e565b60405180910390fd5b60008111610ef2576040517f08c379a0000000000000000000000000000000000000000000000000000000008152600401610ee9906119e6565b60405180910390fd5b8060046000828254019250508190555080600660008473ffffffffffffffffffffffffffffffffffffffff1673ffffffffffffffffffffffffffffffffffffffff168152602001908152602001600020600082825403925050819055507f9bf19fcaed3216b249d549bbd10270c5ccb0e8af4b6b33387f21aa9969e56aac8282604051610f80929190611c6e565b60405180910390a15050565b600260009054906101000a900473ffffffffffffffffffffffffffffffffffffffff1673ffffffffffffffffffffffffffffffffffffffff163373ffffffffffffffffffffffffffffffffffffffff161461101c576040517f08c379a000000000000000000000000000000000000000000000000000000000815260040161101390611bbc565b60405180910390fd5b806004541015611061576040517f08c379a000000000000000000000000000000000000000000000000000000000815260040161105890611c4e565b60405180910390fd5b600081116110a4576040517f08c379a000000000000000000000000000000000000000000000000000000000815260040161109b906119e6565b60405180910390fd5b8060046000828254039250508190555080600660008473ffffffffffffffffffffffffffffffffffffffff1673ffffffffffffffffffffffffffffffffffffffff168152602001908152602001600020600082825401925050819055507f777ef5eaabef3886e23f4fb05ad8db9f4b8d00a08fddf565c4fee2e02fb9fc618282604051611132929190611c6e565b60405180910390a15050565b6111bf8363a9059cbb60e01b848460405160240161115d929190611c6e565b604051602081830303815290604052907bffffffffffffffffffffffffffffffffffffffffffffffffffffffff19166020820180517bffffffffffffffffffffffffffffffffffffffffffffffffffffffff838183161783525050505061124d565b505050565b611247846323b872dd60e01b8585856040516024016111e593929190611c97565b604051602081830303815290604052907bffffffffffffffffffffffffffffffffffffffffffffffffffffffff19166020820180517bffffffffffffffffffffffffffffffffffffffffffffffffffffffff838183161783525050505061124d565b50505050565b60006112af826040518060400160405280602081526020017f5361666545524332303a206c6f772d6c6576656c2063616c6c206661696c65648152508573ffffffffffffffffffffffffffffffffffffffff166113149092919063ffffffff16565b905060008151111561130f57808060200190518101906112cf9190611cfa565b61130e576040517f08c379a000000000000000000000000000000000000000000000000000000000815260040161130590611d99565b60405180910390fd5b5b505050565b6060611323848460008561132c565b90509392505050565b606082471015611371576040517f08c379a000000000000000000000000000000000000000000000000000000000815260040161136890611e2b565b60405180910390fd5b61137a85611440565b6113b9576040517f08c379a00000000000000000000000000000000000000000000000000000000081526004016113b090611e97565b60405180910390fd5b6000808673ffffffffffffffffffffffffffffffffffffffff1685876040516113e29190611f31565b60006040518083038185875af1925050503d806000811461141f576040519150601f19603f3d011682016040523d82523d6000602084013e611424565b606091505b5091509150611434828286611453565b92505050949350505050565b600080823b905060008111915050919050565b60608315611463578290506114b3565b6000835111156114765782518084602001fd5b816040517f08c379a00000000000000000000000000000000000000000000000000000000081526004016114aa9190611f9d565b60405180910390fd5b9392505050565b600080fd5b600073ffffffffffffffffffffffffffffffffffffffff82169050919050565b60006114ea826114bf565b9050919050565b6114fa816114df565b811461150557600080fd5b50565b600081359050611517816114f1565b92915050565b600060208284031215611533576115326114ba565b5b600061154184828501611508565b91505092915050565b6000819050919050565b61155d8161154a565b82525050565b60006020820190506115786000830184611554565b92915050565b6000819050919050565b60006115a361159e611599846114bf565b61157e565b6114bf565b9050919050565b60006115b582611588565b9050919050565b60006115c7826115aa565b9050919050565b6115d7816115bc565b82525050565b60006020820190506115f260008301846115ce565b92915050565b611601816114df565b82525050565b600060208201905061161c60008301846115f8565b92915050565b60008115159050919050565b61163781611622565b82525050565b6000602082019050611652600083018461162e565b92915050565b6000819050919050565b61166b81611658565b811461167657600080fd5b50565b60008135905061168881611662565b92915050565b6116978161154a565b81146116a257600080fd5b50565b6000813590506116b48161168e565b92915050565b6000806000606084860312156116d3576116d26114ba565b5b60006116e186828701611508565b93505060206116f286828701611679565b9250506040611703868287016116a5565b9150509250925092565b60008060408385031215611724576117236114ba565b5b6000611732858286016116a5565b925050602061174385828601611679565b9150509250929050565b60008060408385031215611764576117636114ba565b5b600061177285828601611508565b9250506020611783858286016116a5565b9150509250929050565b600082825260208201905092915050565b7f596f7520617265206e6f742074686520676f7665726e616e636520636f756e6360008201527f696c000000000000000000000000000000000000000000000000000000000000602082015250565b60006117fa60228361178d565b91506118058261179e565b604082019050919050565b60006020820190508181036000830152611829816117ed565b9050919050565b7f596f7520617265206e6f7420746865206e6f6e70726f66697420636f756e636960008201527f6c00000000000000000000000000000000000000000000000000000000000000602082015250565b600061188c60218361178d565b915061189782611830565b604082019050919050565b600060208201905081810360008301526118bb8161187f565b9050919050565b7f4e6f7420612077686974656c6973746564206e6f6e70726f6669740000000000600082015250565b60006118f8601b8361178d565b9150611903826118c2565b602082019050919050565b60006020820190508181036000830152611927816118eb565b9050919050565b7f42616c616e6365206d7573742067726561746572207468616e20616d6f756e74600082015250565b600061196460208361178d565b915061196f8261192e565b602082019050919050565b6000602082019050818103600083015261199381611957565b9050919050565b7f416d6f756e74206d7573742062652067726561746572207468616e2030000000600082015250565b60006119d0601d8361178d565b91506119db8261199a565b602082019050919050565b600060208201905081810360008301526119ff816119c3565b9050919050565b7f4e487b7100000000000000000000000000000000000000000000000000000000600052601160045260246000fd5b6000611a408261154a565b9150611a4b8361154a565b925082821015611a5e57611a5d611a06565b5b828203905092915050565b611a7281611658565b82525050565b6000608082019050611a8d6000830187611a69565b611a9a60208301866115f8565b611aa760408301856115f8565b611ab46060830184611554565b95945050505050565b6000611ac88261154a565b9150611ad38361154a565b9250827fffffffffffffffffffffffffffffffffffffffffffffffffffffffffffffffff03821115611b0857611b07611a06565b5b828201905092915050565b6000606082019050611b2860008301866115f8565b611b356020830185611a69565b611b426040830184611554565b949350505050565b7f596f7520617265206e6f742074686520696e746567726174696f6e20636f756e60008201527f63696c0000000000000000000000000000000000000000000000000000000000602082015250565b6000611ba660238361178d565b9150611bb182611b4a565b604082019050919050565b60006020820190508181036000830152611bd581611b99565b9050919050565b7f42616c616e6365206d7573742062652067726561746572207468616e20616d6f60008201527f756e740000000000000000000000000000000000000000000000000000000000602082015250565b6000611c3860238361178d565b9150611c4382611bdc565b604082019050919050565b60006020820190508181036000830152611c6781611c2b565b9050919050565b6000604082019050611c8360008301856115f8565b611c906020830184611554565b9392505050565b6000606082019050611cac60008301866115f8565b611cb960208301856115f8565b611cc66040830184611554565b949350505050565b611cd781611622565b8114611ce257600080fd5b50565b600081519050611cf481611cce565b92915050565b600060208284031215611d1057611d0f6114ba565b5b6000611d1e84828501611ce5565b91505092915050565b7f5361666545524332303a204552433230206f7065726174696f6e20646964206e60008201527f6f74207375636365656400000000000000000000000000000000000000000000602082015250565b6000611d83602a8361178d565b9150611d8e82611d27565b604082019050919050565b60006020820190508181036000830152611db281611d76565b9050919050565b7f416464726573733a20696e73756666696369656e742062616c616e636520666f60008201527f722063616c6c0000000000000000000000000000000000000000000000000000602082015250565b6000611e1560268361178d565b9150611e2082611db9565b604082019050919050565b60006020820190508181036000830152611e4481611e08565b9050919050565b7f416464726573733a2063616c6c20746f206e6f6e2d636f6e7472616374000000600082015250565b6000611e81601d8361178d565b9150611e8c82611e4b565b602082019050919050565b60006020820190508181036000830152611eb081611e74565b9050919050565b600081519050919050565b600081905092915050565b60005b83811015611eeb578082015181840152602081019050611ed0565b83811115611efa576000848401525b50505050565b6000611f0b82611eb7565b611f158185611ec2565b9350611f25818560208601611ecd565b80840191505092915050565b6000611f3d8284611f00565b915081905092915050565b600081519050919050565b6000601f19601f8301169050919050565b6000611f6f82611f48565b611f79818561178d565b9350611f89818560208601611ecd565b611f9281611f53565b840191505092915050565b60006020820190508181036000830152611fb78184611f64565b90509291505056fea2646970667358221220ed24cf04adaac15f806550522ffa51253e4eac6044e7341abdf473748717e87a64736f6c634300080e0033",
  "linkReferences": {},
  "deployedLinkReferences": {}
}